:020000040800F2
:1000000090050020C50000085D1B0008A918000825
:1000100000000000000000000000000000000000E0
:10002000000000000000000000000000491D000862
:1000300000000000000000005F1B0008751D0008A4
:10004000D7000008D7000008D7000008D700000834
:10005000D7000008D70000086D050008D700000889
:1000600000000000D7000008D7000008D7000008F3
:10007000D7000008D7000008D7000008D700000804
:10008000D70000080000000000000000D7000008B2
:1000900000000000D7000008D7000008D7000008C3
:1000A00000000000D700000800000000D700000892
:1000B0000348854600F094F8004800476122000894
:1000C000900500200448804704480047FEE7FEE70B
:1000D000FEE7FEE7FEE7FEE7F51D0008B1000008B9
:1000E00010B5202A04DB0846203AD040002110BD7C
:1000F0000B46D340D0402024A21A91400843194611
:1001000010BDD2B201E00270401C491EFBD2704704
:100110000022F6E710B513460A4604461946FFF7D3
:10012000F0FF204610BD0122D207002800DB101A84
:10013000002900DB511A814201D8012070470020BC
:10014000704770B50446002903D000202022012307
:1001500010E0002801D00020C043C046C0460DE09A
:100160002546D5408D4205D30D469540641B1D465E
:10017000954040191546521E002DF1DC214670BDF8
:10018000F0B51FB40646002082B005464024019118
:1001900000901BE0019922460F463046FFF7A0FF72
:1001A000049A059B801A994110D31046194622469D
:1001B00000F028F8361A8F410197224601200021CD
:1001C000009F00F01FF838184D4100902046641E33
:1001D0000028DFDC019B00982946324607B0F0BDBD
:1001E000064C0125064E05E0E36807CC2B430C3C8A
:1001F00098471034B442F7D3FFF75EFF9426000807
:10020000B426000810B5202A04DB0146203A9140AC
:10021000002010BD914020239C1A0346E34019435F
:10022000904010BDF0B581B000920E460446164DC8
:100230000C35032728683146FFF775FF002803D1E6
:100240002D1F7F1EF6D100270099002903D0B8008A
:100250000D4A10580860B9005520000122888242DA
:1002600003D18AB2638893420AD0A1702070090A30
:10027000E170000A607042481021012200F00BFC7E
:10028000002001B0F0BDC04648260008F0B583B09C
:100290000190012671033A4F002538462A4600F0A6
:1002A000FAFBB10338462A4600F0F5FBF103384665
:1002B0002A4600F0F0FB10243846214600952A46D5
:1002C000019D00F0E8FB2F4801F07CFF38462146F5
:1002D000324600F0E0FB0A2000F0C2FA298836031B
:1002E000304600F007F904462988304600F002F94C
:1002F00004192988304600F0FDF824182988304672
:1003000000F0F8F824182988304600F0F3F8201897
:1003100084B269880320C702384600F0EBF84042F7
:1003200080B284421AD1642001F04CFF02AC304606
:10033000214600F069F82B8822889A4212D1124E89
:1003400002AC3846214600F05FF86B8822889A425A
:100350000FD12C4801F0DEFF009E0EE00220C043CA
:10036000861C0AE0014609A001F0D4FF064E761C67
:1003700003E0014614A001F0CDFF30B203B0F0BDA0
:1003800000040048A0860100FDFF00007365742092
:100390006B5265674E616D65436F6E74726F6C3141
:1003A000204572726F722C7265743A256420616305
:1003B0007475616C3A30782558206578706563747F
:1003C0003A307825580A0D00736574206B526567C2
:1003D0004E616D65436F6E74726F6C322045727240
:1003E0006F722C7265743A25642061637475616C58
:1003F0003A30782558206578706563743A307825EE
:10040000580A0D007B260008F0B589B0039101461B
:1004100008AC0025258007AE35800127F8032A4661
:1004200001F0C8FE059020800920C0060821069032
:100430002A4600F030FB384601F0C4FE7D20C000A3
:10044000049000904648214632463B4601F032F87F
:10045000002805D00146434801F05CFF424E42E0CF
:10046000082101910124069F3846224600F013FB23
:10047000204601F0A7FEE84307A90291088008AED4
:1004800005983080384601992A4600F004FB204642
:1004900001F098FE0498009031483146029A2346B4
:1004A00001F008F80146304E002903D02D4801F034
:1004B00031FF18E0082101240698224600F0EBFAEB
:1004C000204601F07FFE07A800880849884201D134
:1004D000B61E08E0039A002A04D00549084010809F
:1004E0002E4600E02E4630B209B0F0BDEFBE00004F
:1004F000FF070000F0B585B00A46014604AE0024AF
:10050000348003AF3C80204601F054FE3080092047
:10051000C00608210290224600F0BDFA01252846B7
:1005200001F050FE7D20C00000900D4831463A4653
:100530002B4600F0BFFF002805D00146094801F016
:10054000E9FE094C08E00125284601F03BFE0821A0
:1005500002982A4600F09FFA20B205B0F0BDC046CE
:10056000A000002058260008FFFF000080B50420EE
:1005700000F0B2F980BDEFF3108072B6FEE7000024
:1005800002480068C003C00F7047C04610E000E09A
:10059000F0B583B00246002302933420105C01289A
:1005A00002D1022003B0F0BD01931646343601207B
:1005B00030701768BB685B0716D4009660C90124C9
:1005C0002046A840324B08399E4215D1B96A814372
:1005D000B962284610380228019F3846009E08D884
:1005E000112D1BD02F481AE0916B20230B439363EE
:1005F000019F377003B0F0BDBB6A0343BB62D06A92
:10060000421E072A33D2284610380228019F384656
:10061000009EEED8112D0BD020060AE02048102DA8
:1006200000D121481B490A6802400A603846E0E7C9
:10063000A005102D00D1E00516490A6802430A60A2
:10064000102D3846D5D1144800681449FFF779FDBC
:100650000A2141430291029800283846C9D00298E5
:10066000401E029002980028F9D13846C1E72207BF
:100670009042C8D07A690720024089689142C2D06E
:100680007A6982437A610140786908437861BAE700
:1006900001100000082701400400002040420F0024
:1006A000FFFFBFFFFFFFFFFEFFFF7FFFF0B581B041
:1006B000002865D004460646243605463835806B4A
:1006C000002805D100203074E063204600F098F83F
:1006D0002868C0064DD420688168490749D4812123
:1006E00049002A688A43911C2960826803210A40D4
:1006F000012A05D10268D2070ED1C26812040BD4B8
:10070000C26818239A43A3681343C3608907026928
:100710008A43616811430161C168374A0A40C26077
:10072000A16A491E4A1E914109030091227E92034B
:10073000637EDB031343A27E57031F43E3682169F3
:100740003B43009F3B43891E4F424F41BF001F4325
:10075000317849003943E37E012B17D1002A12D0AA
:10076000A26B20231343A363E26B01231343E363D0
:100770000CE02868102101430120296001B0F0BD80
:10078000012001B0F0BD012212041143E269FF23F0
:10079000C2339A4202D00A43216A1143C2680A4313
:1007A000C260E26A531E072B20D243690726B34377
:1007B00043613240436913434361C0680F4A0240BA
:1007C0008A4207D10020E063A26B0121114302227B
:1007D0009143D2E7A06B1021014302208143A16322
:1007E000E16B012001433C342546C6E701231B078A
:1007F0009A42DAD0E1E7C0461902FEFFE7FF3F83E5
:1008000010B586B0002105910491039102910191E8
:100810000068114A904201D006B010BD012042028A
:100820000E4B5C6814435C605C6814400094009A52
:1008300040041A6802431A601A6802400092039149
:1008400003200290072001900920C006009901A909
:1008500000F04EF806B010BD002401401410024014
:10086000B0B5044600F020F90546601C02D0F948F6
:100870000078041900F018F9401BA042FAD3B0BD6B
:1008800010B5042812D100F00FF9014608A001F0BC
:1008900041FD00F009F9044601200102084800F07A
:1008A000EDF8024607A0214601F034FD10BDC04618
:1008B0000A0D73746172743A25640A0D0000000019
:1008C00000040048656E643A2564206661756C74A6
:1008D0003A25640A0D00000080B504490A68024206
:1008E00002D00860FFF7CCFF80BDC0461404014071
:1008F000F0B58CB00B68002B00D1B7E006465C4821
:10090000864201D0052000E002200090012400254D
:100910002F460394049105960CE01843059E554A12
:10092000D0600B681846E040AD1C3F1D641C0028D9
:1009300000D19BE0601E039A0A9082401340089306
:10094000EFD00694486803240346099423403446B4
:100950005E1E012E2646079715D8099EAE400599C2
:100960008F68B7430499CE68AE403E43079F059C0D
:100970000499A660C006C00F0A9EB0406668964300
:10098000064366602646032B099C18D02046A840E3
:10099000F26882438868A8401043F060022B0ED1B1
:1009A0001C2038400F2282400A9BDB089B00F31872
:1009B0001E6A96430A6982403243059E1A622046A7
:1009C000A84032688243486883032040A84010430F
:1009D0003060980F2246069CA3D00295C149086852
:1009E0000123184308600868019318400B900C21FC
:1009F00039400F2088400A9D954333460B9E1E4F79
:100A0000EE598643EF190920C006834205D08C4871
:100A10008342009802D1019800E0002088403043D2
:100A200038601448006804994E68F203029D02D5AC
:100A3000089B184301E0089B9843079F0D4A1060EC
:100A40005068B20301D5184300E09843094A50604A
:100A50009068F20201D5184300E09843054A90607F
:100A6000D068B20200D558E7984357E70CB0F0BD04
:100A700000080048000401400800014000690840E7
:100A8000411E8841704742690B4693430A40110456
:100A9000C91881617047002A02D01822815070471E
:100AA00028228150704700006B4800687047C0469C
:100AB000B0B502464120135C0220202B19D1134609
:100AC00040331C78012C14D0242058701068026820
:100AD0000124A24302602203056895430560026871
:100AE0000A43026001682143016000201870202140
:100AF0005970B0BDB0B502464120135C0220202BD6
:100B000019D1134640331C78012C14D0242058707E
:100B1000106802680124A24302600F2212020568D5
:100B200095430902294301600168214301600020C7
:100B3000187020215970B0BDF0B581B0002820D0C8
:100B40000446054640356878002804D10020287006
:100B5000204600F043F824206870206802680121D4
:100B60008A4302600F22120663689343036183681D
:100B7000184A13408360E368012B05D02126B60292
:100B800003E0012001B0F0BDCE03A76837438760C2
:100B9000022B01D1CB02436043680F4E1E434660D7
:100BA000C3681340C360226963691343A2691202D8
:100BB0001A43C260E269236A1343036002680A436E
:100BC000026000206064202169702063A87001B079
:100BD000F0BDC046FF7FFFFF00800002B0B586B0C9
:100BE0000021059104910391029101910068124A3C
:100BF000904201D006B0B0BD104C2068012505958B
:100C0000AA04104320602068104000900391122035
:100C1000029003200490800201900098084801A9E6
:100C2000FFF766FE6805A1680143A160A168014065
:100C30000091009806B0B0BD00540040141002406E
:100C4000000400481B48007803490A68101808602F
:100C50007047C046080000208801002080B5A648E3
:100C6000016810220A430260032000F005F800F03A
:100C700025F8002080BDC046B0B504467D20C000E8
:100C80000C490978FFF75DFA0146A0480068FFF7B4
:100C900058FA00F009FD0125032C09D8002807D1D6
:100CA0000025E84321462A4600F022F80248046065
:100CB0002846B0BD080000200C00002082B0094882
:100CC00001680122114301600168114001910199FD
:100CD000110742680A43426040680840009000984B
:100CE00002B070471810024080B501F037FA80BD9D
:100CF00080B501F03FFA80BDF0B585B0044680783C
:100D0000C007394B4DD00120039001071A1F10680E
:100D10000840029006D1106808431060106808402F
:100D20000490049800920191304E3068C00511D4AF
:100D300003980702306838433060FFF7B5FE054678
:100D40003068384206D1FFF7AFFE401B6428F7D960
:100D5000032538E003252802234B1968014012D0EF
:100D60006268024091420ED00398000419681A6824
:100D700002431A601A6882431A6008461C4A1040EF
:100D80001860C80722D118681949084061680143F2
:100D900019600298002804D1009A106801998843CC
:100DA00010602068C10705D0196903229143A26829
:100DB0000A431A610025800605D518691021884369
:100DC000E16801431961284605B0F0BDFFF76CFEEC
:100DD00006464A4F044B18688007D4D4FFF764FED8
:100DE000801BB842F6D9EEE72010024000700040A8
:100DF000FFFCFFFFF0B581B000284CD004463E4A0E
:100E00001368012003408B4208D213680126B343C4
:100E10000B431360126832408A426AD10091216804
:100E20008A070ED54A0705D5072212024F4D2B68B7
:100E300013432B604D4D2A68F0239A43A368134354
:100E40002B60C90729D12C49086801263040009A37
:100E5000904205D90868B04308600868C00748D1C7
:100E60002078400707D507200002404A11688143D7
:100E7000E0680843106000F059F83C490968090629
:100E8000090F1F4A515CC840204908600320FFF742
:100E9000F3FE00262DE001262BE06168334A121F85
:100EA000022906D0012909D112689203064620D5ED
:100EB00008E01268920106461BD503E0126892070B
:100EC000064616D5294A10680326B0430843106029
:100ED000FFF7EAFD0746094D244800680C21014050
:100EE000606880008142AED0FFF7DEFDC01BA842E3
:100EF000F2D9304601B0F0BD002002408813000056
:100F000030260008014800687047C04604000020F1
:100F100080B5FFF7F7FF154909684905490F024AEF
:100F2000515CC84080BDC0464026000810B50F493E
:100F30000A680C2313400E48042B15D0082B08D147
:100F400093021B0F0BA4E45C896AD20304D41148FA
:100F500008E0114C204610BD0F22114009A2515C3F
:100F6000FFF7EFF84443204610BDC046041002408E
:100F700000366E0102030405060708090A0B0C0D72
:100F80000E0F10100102030405060708090A0B0CD6
:100F90000D0E0F1000093D0000127A00F0B587B069
:100FA00004460120002C00D1CDE104902078C00738
:100FB000E64E05941CD071680C200140042911D024
:100FC00071680140082902D17068C0030AD46068C2
:100FD000002803903ED0052800D121E1012839D115
:100FE000012022E13068800302D5606800282ED0FD
:100FF000207880074ED570680007800F07D0706892
:101000000C21014008290ED17068C0030BD4306850
:101010008007059A02D5D068012818D13068F821D8
:101020008843116933E03068059CE16800291AD0D3
:10103000012108433060FFF737FD0546306880071F
:1010400021D4FFF731FD401B0228F7D902E10498B3
:1010500007B0F0BD0120010432688A433260810488
:1010600030688843E4E0012188433060FFF71CFDCD
:101070000546306880070DD5FFF716FD411B03209C
:101080000229F6D95FE13068F82188432169C90057
:1010900001433160059C2078000722D42078400766
:1010A00032D42078C00600D4EBE0059A5069411D87
:1010B0006DD0012874D1706B042101437163706B92
:1010C000012101437163FFF7EFFC0546706B800758
:1010D00000D5CEE0FFF7E8FC411B03200229F5D93B
:1010E00031E1706AE169002942D001210843706250
:1010F000FFF7DAFC0546706A8007CFD4FFF7D4FC0F
:10110000401B0228F7D9A5E0012003900107F069F0
:101110000840029006D1F0690843F061F069084088
:101120000690069801918A4F3868C00510D403983C
:101130000402386820433860FFF7B6FC054638687B
:10114000204205D1FFF7B0FC401B6428F7D981E0AD
:1011500005988468002C03D0052C36D0012C38D09B
:10116000306A039988433062306A0421884333E04F
:10117000012188437062FFF797FC0546706A80077B
:101180008CD5FFF791FC401B0228F7D962E0706B09
:10119000042188437063706BF821884391696DE086
:1011A000706B042101437163706B0121884370638C
:1011B000FFF77AFC0546706B800762D5FFF774FC79
:1011C000411B03200229F6D9BDE0306A0421014306
:1011D0003162306A0399084330625E4FFFF764FC66
:1011E0000546002C0FD0306A80070FD4FFF75CFC57
:1011F000401BB842F7D92DE0FFF756FC411B0320F6
:10120000B94200D99FE0306A8007F5D402980028DF
:10121000059C00D045E7F06901998843F06140E7FB
:101220000120810432680A433260010430680843B7
:10123000306001204704FFF737FC0546039800287B
:101240000BD03068384200D0D2E6FFF72DFC401BAF
:101250006428F6D9032007B0F0BD059C30683842F9
:1012600000D1C5E6FFF720FC411B03206429F5D916
:1012700069E0706BF821884305998969C9000143C9
:1012800071630598046A002C1AD070680C21014023
:10129000082918D1012C049855D001200304716845
:1012A0000B40F26A059D6C6AA3424CD10F231A4091
:1012B000EC6AA24247D19A041140AA6A914242D1F3
:1012C000002007B0F0BD012002063168049291436E
:1012D00031604706FFF7E8FB0546022C0AD1049C63
:1012E0003068384210D0FFF7DFFB411B0320022992
:1012F000F6D928E030683842E2D0FFF7D5FB411B31
:1013000003200229F6D91EE0F06A0F218843059ACE
:10131000D16A0143F1623D20000471688143906A03
:101320000843516A01437160306820433060FFF721
:10133000BBFB044630683842C2D1FFF7B5FB011B46
:1013400003200229F6D907B0F0BDC04600100240C4
:101350000070004088130000F0B585B000280CD064
:10136000044605465C3541208600606A002807D0A7
:10137000002020612046143007E0012005B0F0BDB8
:101380006068B04203D020461C3000210160002775
:10139000A7626878002804D100202870204600F059
:1013A00057F8022004950190687020680168402277
:1013B000914303900160E168BA4A012591422A46AF
:1013C00000D33A461203ED020D430F273802029074
:1013D000854201D00025A5626568A76835402123B4
:1013E0009B023B405B192569019805401D436069DC
:1013F000012318402843FC36A7693E400643E069B4
:10140000382505403543206A802606402E43580380
:10141000A56A05403543039E3560380C0425054018
:10142000029801400A432A43606A10210140114397
:10143000606B082202400A437260D802F16981435E
:10144000F1610020206604994B7005B0F0BDC046E4
:1014500010B586B00021059104910391029101918C
:101460000068134A904201D006B010BDCD484268D2
:10147000012303931C0322434260426822400092EE
:10148000009A9A04036813430360006810400090B8
:101490000591032004900220029007204003019050
:1014A0000098C14801A9FFF723FA06B010BDC04655
:1014B00000300140F0B587B004465C20205C012874
:1014C00002D1022007B0F0BD1D46049227464437E2
:1014D000059101263E76FFF7E7FA3246059E069013
:1014E000797E01297DD1002E104600D1C7E00498F5
:1014F0000028104600D1C2E0002D104600D1BEE009
:101500000392787E042801D0052078760023236694
:101510007D80E587E168634A01200291914202469D
:1015200000D31A46110301910103206842688A43DF
:10153000019951184160049921643D80A663E364D8
:101540002365A5870168490603D4016840220A4340
:1015500002600C9E61684A424A41691E4B424B41FF
:10156000134302994F4A914249D3002B08D0A16BF3
:101570000988C1600598801CA063E08F401EE08749
:101580000125E08F002802D1788800287CD02068CF
:10159000816889070DD5E18F012D0AD1002908D076
:1015A000A16B0A88C260891CA163E18F491EE18793
:1015B00000258168C9070BD07988002908D0216CE3
:1015C000C0680880881C20647888401E78800125C7
:1015D000FFF76AFA711CD4D00699401AB042D0D3F2
:1015E0004BE003924120820063680220934245D180
:1015F000042943D1A1680029039A40D173E7002B45
:1016000008D0059909780173A06B401CA063E08F96
:10161000401EE0870125E08F002802D1788800284D
:1016200032D02068816889070ED5E18F012D0BD15A
:10163000002909D0A16B09780173A06B401CA0633D
:10164000E08F401EE087002520688168C9070CD024
:101650007988002909D0007B216C0870206C401C1F
:1016600020647888401E78800125FFF71DFA711CE0
:10167000D1D00699401AB042CDD30320039A00215D
:1016800039767A7607B0F0BD20463146069A00F0EA
:1016900067FA002803D0202020660120EEE7002012
:1016A000ECE7C0460107000080B500F04FFB80BDAD
:1016B000B0B500282FD00446806F002805D17420D3
:1016C00000212154204600F029F82420A06720683A
:1016D00001680125A9430160204600F02DFC012886
:1016E00017D0606A002802D0204600F084FB092051
:1016F000C00221684A6882434A6088682A2290436F
:1017000088600868012202430A60204600F0DCFB82
:1017100005462846B0BD0120B0BD0000F0B587B039
:1017200000250695059504950395029500681C49CA
:10173000884201D007B0F0BD01208203CA494B683E
:1017400013434B604B6813400193019A42040B68AA
:1017500013430B600B6813400193019A82040B68DA
:1017600013430B600968114001910199069003260B
:101770000596049502270397C00302900920C0062E
:1017800002AC2146FFF7B4F8069505960495039739
:1017900040200290B6482146FFF7AAF807B0F0BDF6
:1017A000003801401410024000040048F0B587B032
:1017B00006920E46816F0222202936D10125002E85
:1017C00034D00699002931D001210D0307468468E1
:1017D000AC4204D13C69002C01D1F40760D10395DF
:1017E00074373C78012C154620D0049304465034BD
:1017F0000025FD600297397007462120B867FFF782
:1018000053F90590069860802080B8680399884253
:101810000FD1386900280696049901D0002206925B
:101820000028029A08D1064606E01546284607B069
:10183000F0BD06950499029A157007E03078396872
:101840000885761C04996088401E608060880028A6
:1018500015D000918021002538462A46059B00F0CE
:1018600005FC002817D1002EE8D1069A10880D49F2
:10187000084039680885921C06922E46E2E70091DE
:101880004021002538462A46059B00F0EFFB002842
:1018900003D00325CAE70325C8E72020B867C5E7BA
:1018A0000D46C3E7FF010000FEE70000B0B584B0BD
:1018B00024211E4800254554012484620562042128
:1018C0001B4AFF23C23324C0056045608460C160A9
:1018D000056143610395029501950838FEF7E6FE20
:1018E000002801D0FEF747FE019520070390200352
:1018F00002900E4801A9FEF74BFE002801D0FEF72A
:101900003AFE0194094801A9FEF742FE002801D0E1
:10191000FEF731FE02200190044801A9FEF738FECF
:10192000002801D0FEF727FE04B0B0BD140000204F
:1019300000240140F0B58BB000240A940994089467
:10194000079406940125E904474802680A430260A7
:1019500002680A4005920599A90502680A430260D7
:1019600002680A4005920599690402680A43026008
:1019700002680A4005920599A90402680A430260B8
:1019800000680840059005986903039137482A4686
:10199000FFF781F80920C6060296082130462A463C
:1019A000FFF779F80F20C10130462246FFF773F8A0
:1019B0002F4F032138460E4601912246FFF76BF860
:1019C0001021049138462A46FFF765F809940894D7
:1019D00007950398069006AF24483946FEF788FF1E
:1019E000099608950795F120C0000690029E3046A2
:1019F0003946FEF77DFF0894079420200690304674
:101A00003946FEF775FF01980990089507950690ED
:101A1000174E30463946FEF76BFF0895212000042B
:101A200007900420069030463946FEF761FF09947E
:101A3000089507950498069030463946FEF758FFFA
:101A4000089507942802069030463946FEF750FF65
:101A50000625284621462246FFF74AF92846FFF781
:101A600043F90BB0F0BDC046141002400008004816
:101A70000004004810B5124800210122114B124CFD
:101A8000046043608160C260016141618161C16144
:101A90000162FFF751F8002801D0FEF76CFD0848FD
:101AA0000021FFF705F8002801D0FEF764FD044887
:101AB0000021FFF71FF8002801D0FEF75CFD10BDE4
:101AC000540000205D3E30200054004070B51048A6
:101AD00000210722016241628162C26201634163A7
:101AE000102201230B4C0F252D024126B60050C0B9
:101AF000FC36016045600838044610344AC4C261AF
:101B0000FFF72AFC002801D0FEF735FD70BDC04666
:101B1000A00000200030014010B50D4800210C222B
:101B20000C4B01624162E124640218C00160416013
:101B30008160C260016141610838FFF7B9FD00288A
:101B400001D0FEF718FD04480121016010BDC04618
:101B5000040100200038014010000020FEE770471B
:101B6000F0B581B016460F4605460324E1023A4619
:101B7000334600F01BF800280FD12846394632467C
:101B800000F086F8002808D10320410228463A4692
:101B9000334600F00BF8002806D0286E20210143C0
:101BA0002966204601B0F0BD0024FAE7F0B589B0FF
:101BB0001E4614460F46029007A800250570FEF742
:101BC00073FF301A06940419FEF76EFF029A049010
:101BD0005C48006823214143080D05946043089048
:101BE000106803908068384226D010465C3001901F
:101BF00003E01068806838421CD0032670028742D8
:101C000004D10398007B07A9087007980698401C28
:101C1000EFD01446FEF748FF0499401A0599884210
:101C20000CD208980899491E089100282246E0D154
:101C30000590DEE72E4628E02E4626E02346206863
:101C40004168E022914341604121890062688A42F3
:101C50000CD199680122D3039942234602D0920203
:101C6000914203D1016840229143016001214A035E
:101C70009B6A934205D1036893430360036813434F
:101C800003600020019A10705170304609B0F0BD19
:101C9000F0B583B016460D460446FEF705FF301A30
:101CA0004719FEF701FF0646264800684001000D6F
:101CB000784302902068806800210191000602D4D8
:101CC000019803B0F0BD20465C30009003E020682E
:101CD00080680006F4D5681CF9D0FEF7E5FE801B8D
:101CE000B84207D202980299491E02910028EED10B
:101CF0000746ECE720684168E022914341604121BA
:101D0000890062688A420BD1A1680122D3039942FB
:101D100002D09202914203D10168402291430160B6
:101D200001214A03A36A934205D1036893430360E8
:101D30000368134303600020009A10705170032061
:101D400003B0F0BD0400002070470000B0B5401E95
:101D5000010E01D00120B0BD054D68600024E043B4
:101D6000032100F007FAAC60072028602046B0BDD0
:101D700010E000E080B5FEF765FF80BDF0B595B0DE
:101D800009AC30212046FEF7C3F9002508950795D8
:101D9000069505950120010412910227119710263E
:101DA0000F960E900A901120099005201490C004FF
:101DB000139004950395029501952046FFF7EEF8E0
:101DC000002815D10895079506970720059005A8C6
:101DD0000121FFF70FF800280AD10496039521206E
:101DE000019001A8FEF788FF002801D115B0F0BDD1
:101DF000FEF7C1FB7047B0B5416ACA070CD18A072C
:101E000014D44A071CD40A0724D4CA062CD48A0640
:101E100034D44A063CD44CE00122520403685C6886
:101E20009443826A22435A608A07EAD50122120447
:101E300003685C689443C26A22435A604A07E2D549
:101E40000122920403685C689443026B22435A6047
:101E50000A07DAD50122D20303685C689443426B17
:101E600022435A60CA06D2D50122120303689C6835
:101E70009443826B22439A608A06CAD50122520398
:101E800003689C689443C26B22439A604A0610D54B
:101E900001221305026854689C43056C2C4354606E
:101EA0009D4206D103235B0554689C43436C234346
:101EB0005360090607D50121C904026853688B43A2
:101EC000806C18435060B0BD70B582B0054680206C
:101ED00000242C50FEF7E8FD06462868006800073D
:101EE0000CD51448009001204105002228463346B5
:101EF00000F0BCF8002801D0032417E0286800682F
:101F000040070CD50B48009001208105002228468F
:101F1000334600F0ABF8002801D0032406E0284641
:101F200074302021A967E96704702C66204602B04E
:101F300070BDC046FFFFFF0170B504460068016830
:101F4000424A0A40A16823690B4365691D43E16960
:101F50000D43154305600322120343689343E2686F
:101F60001A434260A269236A13430B221202856856
:101F700095431D438560364800688007000F35A2F1
:101F800013580125EA033748914211D1082B21D873
:101F90000026C0467B441B795B009F44041B221B28
:101FA000201B1B1B3400FEF7B3FF00281BD12DE0C4
:101FB000082B2DD80026C0467B441B795B009F442C
:101FC00004272E272C2727273C00FEF7A1FF0028F7
:101FD00027D135E000200126002804D116E0FEF7C5
:101FE000A5FF002812D0400061684A081018FEF7CB
:101FF000A8F81D49014024D00007400F084321687C
:10200000C86035461DE010460028ECD1354618E082
:1020100000200126002804D112E0FEF787FF0028E7
:102020000ED061684A081018FEF78BF880B21028AD
:1020300007D32168C860354603E010460028F0D178
:10204000354600206066A066284670BDF369FFFF34
:1020500030100240000000000400000008000000F2
:102060000200000000127A00F0FF0000F0B585B019
:1020700004930D4604460068C0690840401A414276
:1020800041410020914246D11746029020467430CB
:1020900001900A9E01200090C002039007E0206892
:1020A000C0692840401B41424141B94232D1701CB5
:1020B000F5D0FEF7F9FC002E2FD00499401AB0425B
:1020C0002BD8206801684907E9D5C169039A1142F4
:1020D000E5D003990162EFF31080009D85F310882D
:1020E0000D214901226813688B43136080F3108827
:1020F000EFF3108085F3108821688A68AA438A600C
:1021000080F310882020A067E0670021019A1170F9
:10211000D0601FE0029805B0F0BDEFF31080009D85
:1021200085F310880D214901226813688B431360E1
:1021300080F31088EFF3108085F3108821688A6897
:10214000AA438A6080F310882020A0670021019AAA
:102150001170E067032005B0F0BD0000002805D431
:102160001F21084001218140014801607047C0469D
:1021700000E100E0002805D40322034693430C4A03
:102180009A1806E00F220240083A03239A43074BAD
:10219000D2188007C00E8901C9B28140FF23834055
:1021A00010689843084310607047C0461CED00E07B
:1021B00000E400E0024B1340084318437047C04658
:1021C000FF070000B0B5044600F0A0F8054600F097
:1021D0009DF8401BA04205D200BF00F097F8401BBD
:1021E000A042F9D3B0BD000080B582B0019007488D
:1021F0000068002806D07D20C300054801A90122FF
:10220000FFF7D4FA012002B080BDC04610000020C4
:102210000401002070B582B0FEF7B2F90F4E351FF1
:10222000FEF742FC04462868451C3068281A0190D5
:10223000FEF7A6F9002805D0FEF736FC0446306804
:10224000281A01907D20C1004C430198484329463B
:10225000FDF777FF001902B070BDC04618E000E03E
:1022600082B0FEF7FBFCFFF789FDFFF763FBFFF78A
:102270001DFBFFF7FFFBFFF729FCFFF74DFC0920D3
:10228000C006012421022246FEF705FC1048214623
:102290002246FEF700FC01A80E490022FDF7C2FF0E
:1022A000002803D001460CA000F034F801A8FDF787
:1022B000EDFF002803D001460DA000F02BF8124DD1
:1022C00061032846FEF7DFFB3220FFF77BFFF7E7CD
:1022D0000004004800002042445256383330315F39
:1022E000436F6E666967204572723A25640A0D0075
:1022F000445256383330315F496E697420457272EA
:102300003A25640A0D0000000008004880B5FFF778
:1023100081FF80BD0FB410B503A9044B044A029895
:1023200000F018F810BC08BC04B01847E9210008F8
:102330000000002002E008C8121F08C1002AFAD1DC
:1023400070477047002001E001C1121F002AFBD135
:1023500070470000FFB58FB00F460446002606E028
:1023600025280AD0129A11999047641C761C20786F
:102370000028F5D1304613B0F0BD00250121A14A57
:10238000009500E00543641C23780846203B9840F4
:102390001042F7D120782E2815D10420054360780B
:1023A000641C2A280AD101CF641C00900BE000991C
:1023B0000A22514330394018641C009020780146AD
:1023C00030390929F3D920786C280ED004DC4C2848
:1023D00013D06A2812D104E074280ED07A280DD1C7
:1023E0000BE001204005054307E001210905627863
:1023F0000D43824201D16D18641C641C207886460E
:1024000069284AD008DC0028B4D058286DD0632849
:1024100010D0642808D140E070286BD0732812D007
:10242000752860D0782860D0129A7046119990472C
:10243000761CE5E03878694608720020487202A8E8
:102440000190012003E0386801900020C0433F1D47
:1024500069070CD5002500E06D1C00998D420FDA4C
:102460008542F9DB0199495D0029F5D108E0002595
:1024700000E06D1C8542FCDB0199495D0029F8D123
:10248000761907E0019801990078491C0191129A88
:10249000119990476D1EF5D2B2E00A2002900021FA
:1024A0006802400F039102280CD001CFC117844667
:1024B00000290DDA624608465242002181419446C5
:1024C0002D2008E0FF1DFF08FF0003CF8446EFE743
:1024D000280504D52B206A46107401203CE0E8074B
:1024E0003AD02020F7E70A2000E0102000210391D5
:1024F000029007E0102002900021042005430820EC
:10250000039100906802400F022810D001CF0021F3
:10251000844600200D9028071FD5704670280CD0E7
:10252000029A1020039B42401A430CD015E0FF1D75
:10253000FF08FF0003CF8446EBE740206A46107493
:1025400001200D900CE06046084306D030206A461A
:1025500010747046507402200D907046582804D0B4
:1025600029A001900DA80E900DE02CA0F9E760467F
:10257000039B029AFDF704FE019B84469B5C0E9A26
:10258000521E0E92137060460843F0D10E9805A9B2
:10259000081A20300190680701D5009801E0012059
:1025A00000900199884203DD01460198081A00E075
:1025B00000200025009006E004A8129A405D1199C1
:1025C00090476D1C761C0D988542F5DB04E0129A4D
:1025D000302011999047761C0099481E00900029E0
:1025E000F5DC08E00E980E990078491C0E91129ABD
:1025F00011999047761C0199481E01900029F1DC41
:10260000641CB4E6092801003031323334353637E2
:10261000383961626364656600000000303132332E
:1026200034353637383941424344454600000000CE
:102630000000000000000000010203040607080972
:102640000000000001020304000020410000A0413E
:10265000000020420000A04248414C5F5350495FB7
:102660005472616E736D6974526563656976652035
:102670004572723A307825580A0D00445256383364
:1026800030315F496E697420737563636573730AD3
:102690000D000000B8260008000000201000000017
:1026A00034230008C8260008100000208005000020
:1026B00044230008000000000000000000127A001F
:0826C00001000000040000000D
:04000005080000B13E
:00000001FF
