:020000040800F2
:10000000D8050020C50000088D1C0008A1190008B3
:1000100000000000000000000000000000000000E0
:10002000000000000000000000000000791E000831
:1000300000000000000000008F1C0008A51E000842
:10004000D7000008D7000008D7000008D700000834
:10005000D7000008D700000835050008D7000008C1
:1000600000000000D7000008D7000008D7000008F3
:10007000D7000008D7000008D7000008D700000804
:10008000D70000080000000000000000D7000008B2
:1000900000000000D7000008D7000008D7000008C3
:1000A00000000000D700000800000000D700000892
:1000B0000348854600F094F80048004729240008CA
:1000C000D80500200448804704480047FEE7FEE7C3
:1000D000FEE7FEE7FEE7FEE7191F0008B100000893
:1000E00010B5202A04DB0846203AD040002110BD7C
:1000F0000B46D340D0402024A21A91400843194611
:1001000010BDD2B201E00270401C491EFBD2704704
:100110000022F6E710B513460A4604461946FFF7D3
:10012000F0FF204610BD0122D207002800DB101A84
:10013000002900DB511A814201D8012070470020BC
:10014000704770B50446002903D000202022012307
:1001500010E0002801D00020C043C046C0460DE09A
:100160002546D5408D4205D30D469540641B1D465E
:10017000954040191546521E002DF1DC214670BDF8
:10018000F0B51FB40646002082B005464024019118
:1001900000901BE0019922460F463046FFF7A0FF72
:1001A000049A059B801A994110D31046194622469D
:1001B00000F028F8361A8F410197224601200021CD
:1001C000009F00F01FF838184D4100902046641E33
:1001D0000028DFDC019B00982946324607B0F0BDBD
:1001E000064C0125064E05E0E36807CC2B430C3C8A
:1001F00098471034B442F7D3FFF75EFF4C2800084D
:100200006C28000810B5202A04DB0146203A9140F2
:10021000002010BD914020239C1A0346E34019435F
:10022000904010BDF0B581B000920E460446164DC8
:100230000C35032728683146FFF775FF002803D1E6
:100240002D1F7F1EF6D100270099002903D0B8008A
:100250000D4A10580860B9005520000122888242DA
:1002600003D18AB2638893420AD0A1702070090A30
:10027000E170000A60703A481021012200F0D8FBBA
:10028000002001B0F0BDC04600280008F0B583B0E2
:100290000546334E1027002230463946019200F0C1
:1002A000C7FB304802F072F8012430463946224636
:1002B00000F0BEFB642002F069F82988260330466E
:1002C00000F000F904462988304600F0FBF80419D4
:1002D0002988304600F0F6F824182988304600F0C6
:1002E000F1F824182988304600F0ECF8201884B280
:1002F00069880320C702384600F0E4F8404280B223
:1003000084421AD1642002F041F802AC3046214602
:1003100000F06AF82B8822889A4212D1124E02AC61
:100320003846214600F060F86B8822889A420FD147
:100330002C4802F0CBF8019E0EE00220C043861C40
:100340000AE0014609A002F0C1F8074E761C03E05E
:10035000014615A002F0BAF830B203B0F0BDC046B5
:1003600000040048A0860100FDFF000073657420B2
:100370006B5265674E616D65436F6E74726F6C3161
:10038000204572726F722C7265743A256420616325
:100390007475616C3A30782558206578706563749F
:1003A0003A307825580A0D00736574206B526567E2
:1003B0004E616D65436F6E74726F6C322045727260
:1003C0006F722C7265743A25642061637475616C78
:1003D0003A30782558206578706563743A3078250E
:1003E000580A0D0033280008F0B589B00391014682
:1003F00008AC0025258007AE35800127F8032A4682
:1004000001F0BCFF059020800920C006082106905D
:100410002A4600F00DFB7D20C00004900090424869
:10042000214632463B4601F007F8002805D0014638
:100430003E4802F04BF83E4E3DE008210291012477
:100440000698224600F0F4FA204601F09FFFE843A8
:1004500007AF388008AE05983080069802992A4682
:1004600000F0E6FA049800902F4831463A462346B9
:1004700000F0E2FF01462E4E002903D02B4802F087
:1004800025F818E0082101240698224600F0D0FA49
:10049000204601F07BFF07A800880849884201D167
:1004A000B61E08E0039A002A04D0054908401080CF
:1004B0002E4600E02E4630B209B0F0BDEFBE00007F
:1004C000FF070000F0B583B00A46014602AD0024E4
:1004D0002C8001AF3C80204601F050FF288009208D
:1004E000C60608213046224600F0A2FA7D20C00050
:1004F00000900D48012329463A4600F09DFF002850
:1005000005D00146094801F0E1FF094C08E0082147
:10051000012530462A4600F08BFA284601F036FFC6
:1005200020B203B0F0BDC046A4000020102800088F
:10053000FFFF000080B5042000F0A0F980BDEFF3BC
:10054000108072B6FEE7000002480068C003C00FCA
:100550007047C04610E000E0F0B583B002460023CB
:1005600002933420105C012802D1022003B0F0BDB8
:10057000019316463436012030701768BB685B075C
:1005800016D4009660C901242046A840324B083991
:100590009E4215D1B96A8143B962284610380228B3
:1005A000019F3846009E08D8112D1BD02F481AE015
:1005B000916B20230B439363019F377003B0F0BD11
:1005C000BB6A0343BB62D06A421E072A33D2284665
:1005D00010380228019F3846009EEED8112D0BD00E
:1005E00020060AE02048102D00D121481B490A6846
:1005F00002400A603846E0E7A005102D00D1E00572
:1006000016490A6802430A60102D3846D5D11448AD
:1006100000681449FFF795FD0A21414302910298B1
:1006200000283846C9D00298401E0290029800283F
:10063000F9D13846C1E722079042C8D07A6907202D
:10064000024089689142C2D07A6982437A6101404E
:10065000786908437861BAE7011000000827014073
:100660000400002040420F00FFFFBFFFFFFFFFFE1E
:10067000FFFF7FFFF0B581B0002865D00446064635
:10068000243605463835806B002805D100203074AB
:10069000E063204600F098F82868C0064DD4206832
:1006A0008168490749D4812149002A688A43911CFD
:1006B0002960826803210A40012A05D10268D20715
:1006C0000ED1C26812040BD4C26818239A43A368DF
:1006D0001343C360890702698A436168114301615A
:1006E000C168374A0A40C260A16A491E4A1E914148
:1006F00009030091227E9203637EDB031343A27EF3
:1007000057031F43E36821693B43009F3B43891E16
:100710004F424F41BF001F43317849003943E37EC8
:10072000012B17D1002A12D0A26B20231343A363FD
:10073000E26B01231343E3630CE0286810210143BB
:100740000120296001B0F0BD012001B0F0BD0122FF
:1007500012041143E269FF23C2339A4202D00A43D2
:10076000216A1143C2680A43C260E26A531E072B22
:1007700020D243690726B3434361324043691343A0
:100780004361C0680F4A02408A4207D10020E063FB
:10079000A26B0121114302229143D2E7A06B1021E9
:1007A000014302208143A163E16B012001433C34FA
:1007B0002546C6E701231B079A42DAD0E1E7C04687
:1007C0001902FEFFE7FF3F8310B586B000210591B7
:1007D00004910391029101910068114A904201D065
:1007E00006B010BD01204202FA4B5C6814435C6005
:1007F0005C6814400094009A40041A6802431A602E
:100800001A68024000920391032002900720019091
:100810000920C006009901A900F03CF806B010BDFF
:100820000024014010B5042814D1012461030A48B2
:1008300000F0F6F800F004F9014608A001F046FEC9
:100840000A4801788C43047000F0FAF8014608A0C9
:1008500001F03CFE10BDC046000800480A0D73744C
:100860006172743A25640A0D000000001000002037
:10087000656E643A25640A0D0000000080B50449E5
:100880000A68024202D00860FFF7CCFF80BDC04674
:1008900014040140F0B58CB00B68002B00D1B7E018
:1008A00006465C48864201D0052000E00220009008
:1008B000012400252F460394049105960CE018436B
:1008C000059E554AD0600B681846E040AD1C3F1DA0
:1008D000641C002800D19BE0601E039A0A908240AD
:1008E00013400893EFD00694486803240346099404
:1008F000234034465E1E012E2646079715D8099ED2
:10090000AE4005998F68B7430499CE68AE403E4328
:10091000079F059C0499A660C006C00F0A9EB040C0
:1009200066689643064366602646032B099C18D0EA
:100930002046A840F26882438868A8401043F060CF
:10094000022B0ED11C2038400F2282400A9BDB086C
:100950009B00F3181E6A96430A6982403243059E43
:100960001A622046A84032688243486883032040C8
:10097000A84010433060980F2246069CA3D00295F1
:10098000BD490868012318430860086801931840AE
:100990000B900C2139400F2088400A9D9543334627
:1009A0000B9E1E4FEE598643EF190920C006834265
:1009B00005D089488342009802D1019800E00020C8
:1009C0008840304338601448006804994E68F20348
:1009D000029D02D5089B184301E0089B9843079F9E
:1009E0000D4A10605068B20301D5184300E09843E7
:1009F000094A50609068F20201D5184300E098431C
:100A0000054A9060D068B20200D558E7984357E78E
:100A10000CB0F0BD0008004800040140080001408F
:100A200042690B4693430A401104C918816170471B
:100A3000002A02D018228150704728228150704726
:100A40006A4800687047C046B0B502464120135C52
:100A50000220202B19D1134640331C78012C14D0CE
:100A600024205870106802680124A2430260220307
:100A700005689543056002680A43026001682143E6
:100A800001600020187020215970B0BDB0B5024639
:100A90004120135C0220202B19D1134640331C78CF
:100AA000012C14D024205870106802680124A2433D
:100AB00002600F2212020568954309022943016072
:100AC0000168214301600020187020215970B0BDD9
:100AD000F0B581B0002820D004460546403568783E
:100AE000002804D100202870204600F043F824207C
:100AF00068702068026801218A4302600F22120692
:100B00006368934303618368184A13408360E36812
:100B1000012B05D02126B60203E0012001B0F0BD73
:100B2000CE03A76837438760022B01D1CB02436015
:100B300043680F4E1E434660C3681340C36022697A
:100B400063691343A26912021A43C260E269236A0D
:100B50001343036002680A4302600020606420219E
:100B600069702063A87001B0F0BDC046FF7FFFFF31
:100B700000800002B0B586B0002105910491039178
:100B8000029101910068124A904201D006B0B0BDB6
:100B9000104C206801250595AA04104320602068A8
:100BA00010400090039112200290032004908002D4
:100BB00001900098084801A9FFF76CFE6805A1683C
:100BC0000143A160A16801400091009806B0B0BD4A
:100BD0000054004014100240000400481A480078F5
:100BE00002490A68101808607047C046D401002006
:100BF00080B5A648016810220A430260032000F075
:100C000005F800F025F8002080BDC046B0B50446C8
:100C10007D20C0000C490978FFF793FA0146A048EF
:100C20000068FFF78EFA00F001FD0125032C09D8BA
:100C3000002807D10025E84321462A4600F022F883
:100C4000024804602846B0BD080000200C000020C7
:100C500082B0094801680122114301600168114016
:100C600001910199110742680A43426040680840B7
:100C70000090009802B070471810024080B501F053
:100C800051FB80BD80B501F059FB80BDF0B585B04A
:100C900004468078C007394B4DD0012003900107EE
:100CA0001A1F10680840029006D1106808431060AF
:100CB000106808400490049800920191304E30680A
:100CC000C00511D403980702306838433060FFF73D
:100CD000B7FE05463068384206D1FFF7B1FE401B2B
:100CE0006428F7D9032538E003252802234B196827
:100CF000014012D06268024091420ED00398000475
:100D000019681A6802431A601A6882431A60084612
:100D10001C4A10401860C80722D1186819490840B9
:100D20006168014319600298002804D1009A106894
:100D30000199884310602068C10705D01969032212
:100D40009143A2680A431A610025800605D51869F7
:100D500010218843E16801431961284605B0F0BDC0
:100D6000FFF76EFE06464A4F044B18688007D4D43E
:100D7000FFF766FE801BB842F6D9EEE7201002406E
:100D800000700040FFFCFFFFF0B581B000284CD0A0
:100D900004463E4A1368012003408B4208D2136880
:100DA0000126B3430B431360126832408A426AD172
:100DB000009121688A070ED54A0705D5072212023D
:100DC0004C4D2B6813432B604A4D2A68F0239A43FD
:100DD000A36813432B60C90729D12C490868012651
:100DE0003040009A904205D90868B043086008680E
:100DF000C00748D12078400707D5072000023D4AA8
:100E000011688143E0680843106000F059F83949DF
:100E100009680906090F1F4A515CC840204908604B
:100E20000320FFF7F3FE00262DE001262BE061688A
:100E3000304A121F022906D0012909D112689203F3
:100E4000064620D508E01268920106461BD503E04D
:100E500012689207064616D5264A10680326B04344
:100E600008431060FFF7ECFD0746094D2148006874
:100E70000C210140606880008142AED0FFF7E0FDA8
:100E8000C01BA842F2D9304601B0F0BD002002409C
:100E900088130000E8270008014800687047C04632
:100EA0000400002080B5FFF7F7FF124909684905E3
:100EB000490F024A515CC84080BDC046F82700086F
:100EC00010B50C490A680C2313400B48082B10D1AD
:100ED00093021B0F09A4E45C896AD20301D40F4872
:100EE00005E00F22114009A2515CFFF72AF94443A3
:100EF000204610BD0410024000127A0002030405CF
:100F0000060708090A0B0C0D0E0F1010010203044E
:100F100005060708090A0B0C0D0E0F1000093D000D
:100F2000F0B587B004460120002C00D1CDE104903B
:100F30002078C007E64E05941CD071680C20014053
:100F4000042911D071680140082902D17068C003DA
:100F50000AD46068002803903ED0052800D121E122
:100F6000012839D1012022E13068800302D5606870
:100F700000282ED0207880074ED570680007800F9B
:100F800007D070680C21014008290ED17068C00399
:100F90000BD430688007059A02D5D068012818D193
:100FA0003068F8218843116933E03068059CE168B6
:100FB00000291AD0012108433060FFF741FD0546A2
:100FC0003068800721D4FFF73BFD401B0228F7D98A
:100FD00002E1049807B0F0BD0120010432688A43A1
:100FE0003260810430688843E4E001218843306046
:100FF000FFF726FD0546306880070DD5FFF720FD79
:10100000411B03200229F6D95FE13068F8218843AB
:101010002169C90001433160059C2078000722D472
:101020002078400732D42078C00600D4EBE0059A3F
:101030005069411D6DD0012874D1706B04210143AA
:101040007163706B012101437163FFF7F9FC054681
:10105000706B800700D5CEE0FFF7F2FC411B032048
:101060000229F5D931E1706AE169002942D00121F4
:1010700008437062FFF7E4FC0546706A8007CFD42E
:10108000FFF7DEFC401B0228F7D9A5E00120039002
:101090000107F0690840029006D1F0690843F06149
:1010A000F06908400690069801918A4F3868C0059B
:1010B00010D403980402386820433860FFF7C0FC5E
:1010C00005463868204205D1FFF7BAFC401B64286A
:1010D000F7D981E005988468002C03D0052C36D020
:1010E000012C38D0306A039988433062306A042179
:1010F000884333E0012188437062FFF7A1FC054675
:10110000706A80078CD5FFF79BFC401B0228F7D93B
:1011100062E0706B042188437063706BF821884330
:1011200091696DE0706B042101437163706B012163
:1011300088437063FFF784FC0546706B800762D5B7
:10114000FFF77EFC411B03200229F6D9BDE0306A7F
:10115000042101433162306A0399084330625E4FD3
:10116000FFF76EFC0546002C0FD0306A80070FD4C5
:10117000FFF766FC401BB842F7D92DE0FFF760FC93
:10118000411B0320B94200D99FE0306A8007F5D4A3
:1011900002980028059C00D045E7F0690199884332
:1011A000F06140E70120810432680A4332600104A3
:1011B00030680843306001204704FFF741FC0546D2
:1011C000039800280BD03068384200D0D2E6FFF7F1
:1011D00037FC401B6428F6D9032007B0F0BD059CFE
:1011E0003068384200D1C5E6FFF72AFC411B0320D6
:1011F0006429F5D969E0706BF821884305998969FC
:10120000C900014371630598046A002C1AD0706804
:101210000C210140082918D1012C049855D0012037
:10122000030471680B40F26A059D6C6AA3424CD1BD
:101230000F231A40EC6AA24247D19A041140AA6ACD
:10124000914242D1002007B0F0BD01200206316872
:101250000492914331604706FFF7F2FB0546022CEA
:101260000AD1049C3068384210D0FFF7E9FB411BDB
:1012700003200229F6D928E030683842E2D0FFF78F
:10128000DFFB411B03200229F6D91EE0F06A0F2183
:101290008843059AD16A0143F1623D2000047168D8
:1012A0008143906A0843516A01437160306820436A
:1012B0003060FFF7C5FB044630683842C2D1FFF703
:1012C000BFFB011B03200229F6D907B0F0BDC046C1
:1012D000001002400070004088130000F0B585B097
:1012E00000280CD0044605465C3541208600606A23
:1012F000002807D0002020612046143007E001209C
:1013000005B0F0BD6068B04203D020461C3000211B
:1013100001600027A7626878002804D100202870A7
:10132000204600F057F8022004950190687020686C
:1013300001684022914303900160E168BA4A0125A7
:1013400091422A4600D33A461203ED020D430F277D
:1013500038020290854201D00025A5626568A76821
:10136000354021239B023B405B19256901980540CC
:101370001D436069012318402843FC36A7693E409D
:101380000643E069382505403543206A802606403B
:101390002E435803A56A05403543039E3560380C3B
:1013A00004250540029801400A432A43606A10213F
:1013B00001401143606B082202400A437260D80268
:1013C000F1698143F1610020206604994B7005B0FA
:1013D000F0BDC04610B586B000210591049103917F
:1013E000029101910068134A904201D006B010BDED
:1013F00001200203EC4B5C6814435C605C681440A1
:101400000094009A80041A6802431A601A68024025
:10141000009205910320049003910220029007207E
:10142000400301900098E14801A9FFF733FA06B0A4
:1014300010BDC04600300140F0B587B004465C20C6
:10144000205C012802D1022007B0F0BD1D460492A5
:1014500027464437059101263E76FFF7F1FA3246DA
:10146000059E0690797E01297DD1002E104600D17F
:10147000C7E004980028104600D1C2E0002D1046B5
:1014800000D1BEE00392787E042801D00520787652
:10149000002323667D80E587E168634A012002918D
:1014A0009142024600D31A461103019101032068BC
:1014B00042688A43019951184160049921643D8032
:1014C000A663E3642365A5870168490603D4016820
:1014D00040220A4302600C9E61684A424A41691EEA
:1014E0004B424B41134302994F4A914249D3002B3F
:1014F00008D0A16B0988C1600598801CA063E08FAB
:10150000401EE0870125E08F002802D1788800285E
:101510007CD02068816889070DD5E18F012D0AD123
:10152000002908D0A16B0A88C260891CA163E18FE1
:10153000491EE18700258168C9070BD079880029F9
:1015400008D0216CC0680880881C20647888401E00
:1015500078800125FFF774FA711CD4D00699401ADF
:10156000B042D0D34BE00392412082006368022056
:10157000934245D1042943D1A1680029039A40D15F
:1015800073E7002B08D0059909780173A06B401C04
:10159000A063E08F401EE0870125E08F002802D184
:1015A0007888002832D02068816889070ED5E18FBD
:1015B000012D0BD1002909D0A16B09780173A06B13
:1015C000401CA063E08F401EE087002520688168F2
:1015D000C9070CD07988002909D0007B216C0870DC
:1015E000206C401C20647888401E78800125FFF71D
:1015F00027FA711CD1D00699401AB042CDD30320EE
:10160000039A002139767A7607B0F0BD204631463C
:10161000069A00F03DFB002803D020202066012020
:10162000EEE70020ECE7C0460107000080B500F0BF
:1016300025FC80BDB0B53C22825C012A01D102208C
:10164000B0BD02463C320223537001231370006880
:1016500044687025AC430D682543846845609D0748
:10166000A84205D0074DA84202D04E4DA84204D151
:101670008025AC434968214381600020107053707D
:10168000B0BDC046002C014070B5002842D00C46C9
:10169000054606463C367078002804D1002030709C
:1016A000284600F03FF802207070286881681A4AC6
:1016B0000A408260291D00F031FC21682868826898
:1016C0000A438369016A8260A268A5692D021543F5
:1016D000124A2A40124D1D40E3682B431343E2692E
:1016E00012021A4323691B011343226A12031A438D
:1016F0008261AA22914362680A4361690901114328
:1017000001620120B072B070F070B071F071707051
:10171000002070BD012070BDF8BFFFFF0303FFFF75
:101720000000FFFFF0B587B00025069505950495EC
:101730000395029500681B49884201D007B0F0BDAF
:10174000FB48816802263143816081683140019104
:1017500001990127790402680A43026002680A407D
:1017600001920199B90402680A43026000680840C6
:1017700001900198069705950495039640200290E4
:101780000920C00602AC2146FFF784F806970595AC
:101790000495039620200290E7482146FFF77AF847
:1017A00007B0F0BD000400401410024000040048DF
:1017B000B0B500282FD00446806F002805D17420D2
:1017C00000212154204600F029F82420A067206839
:1017D00001680125A9430160204600F091FC012821
:1017E00017D0606A002802D0204600F0E7FB0920ED
:1017F000C00221684A6882434A6088682A2290436E
:1018000088600868012202430A60204600F040FC1C
:1018100005462846B0BD0120B0BD0000F0B587B038
:1018200000250695059504950395029500681C49C9
:10183000884201D007B0F0BD01208203BC494B684B
:1018400013434B604B6813400193019A42040B68A9
:1018500013430B600B6813400193019A82040B68D9
:1018600013430B600968114001910199069003260A
:101870000596049502270397C00302900920C0062D
:1018800002AC2146FFF706F80695059604950397E6
:1018900040200290A8482146FEF7FCFF07B0F0BDAB
:1018A00000380140F0B587B006920E46816F0222E3
:1018B000202936D10125002E34D00699002931D0B7
:1018C00001210D0307468468AC4204D13C69002C19
:1018D00001D1F40760D1039574373C78012C15468B
:1018E00020D00493044650340025FD6002973970DF
:1018F00007462120B867FFF7A3F805900698608097
:101900002080B868039988420FD13869002806966C
:10191000049901D0002206920028029A08D10646B6
:1019200006E01546284607B0F0BD06950499029AD0
:10193000157007E0307839680885761C049960884E
:10194000401E60806088002815D00091802100250D
:1019500038462A46059B00F06DFC002817D1002E62
:10196000E8D1069A10880D49084039680885921C0C
:1019700006922E46E2E700914021002538462A468D
:10198000059B00F057FC002803D00325CAE7032578
:10199000C8E72020B867C5E70D46C3E7FF01000090
:1019A000FEE70000B0B584B024211E480025455450
:1019B00001248462056204211B4AFF23C23324C030
:1019C000056045608460C1600561436103950295CF
:1019D00001950838FEF74EFE002801D0FEF7AFFD56
:1019E000019520070390200302900E4801A9FEF7FD
:1019F000B3FD002801D0FEF7A2FD0194094801A91A
:101A0000FEF7AAFD002801D0FEF799FD0220019003
:101A1000044801A9FEF7A0FD002801D0FEF78FFDC4
:101A200004B0B0BD1800002000240140F0B589B01A
:101A30000024089407940694059404940125E9046D
:101A40003B4802680A43026002680A400392039915
:101A5000690402680A43026002680A40039203991B
:101A6000A90402680A4302600068084003900398D2
:101A70006F03304839462A46FEF7DAFF0920C606CA
:101A80000821019130462A46FEF7D2FF2A4829460E
:101A90002246FEF7CDFF2902029130462246FEF78C
:101AA000C7FF102124482A46FEF7C2FF0794069478
:101AB0000595049704AF1F483946FEF7EBFE032057
:101AC0000790069505950198049030463946FEF733
:101AD000E1FE069405942020049030463946FEF736
:101AE000D9FE0794069505951120049012483946B1
:101AF000FEF7D0FE069521200004059004200490F6
:101B00000D483946FEF7C6FE0794069505950298DE
:101B1000049030463946FEF7BDFE0625284621468C
:101B20002246FFF7AFF82846FFF7A8F809B0F0BD46
:101B300014100240000800480004004810B5124884
:101B400000210122114B124C046043608160C2608D
:101B5000016141618161C1610162FEF7B9FF002845
:101B600001D0FEF7ECFC08480021FEF76DFF0028CD
:101B700001D0FEF7E4FC04480021FEF787FF0028AF
:101B800001D0FEF7DCFC10BD580000200E0900203B
:101B90000054004070B510480021072201624162E4
:101BA0008162C26201634163382201230B4C0F251D
:101BB0002D024126B60050C0FC3601604560083851
:101BC000044610344AC4C261FFF788FB002801D0E4
:101BD000FEF7B5FC70BDC046A400002000300140F7
:101BE000B0B58CB003AC24212046FEF791FA14481E
:101BF000002585611349EC4A24C005604160856079
:101C00000B950A950121099108950795069505916F
:101C1000049503910195009521460838FFF734FD9E
:101C2000002801D0FEF78BFC019500950448694619
:101C3000FFF700FD002801D0FEF781FC0CB0B0BD1D
:101C400008010020FFFF000010B50D4800210C2204
:101C50000C4B01624162E124640218C001604160E2
:101C60008160C260016141610838FFF7A1FD002871
:101C700001D0FEF764FC04480121016010BDC0469C
:101C8000500100200038014014000020FEE770479A
:101C9000F0B581B016460F4605460324E1023A46E8
:101CA000334600F01BF800280FD12846394632464B
:101CB00000F086F8002808D10320410228463A4661
:101CC000334600F00BF8002806D0286E202101438F
:101CD0002966204601B0F0BD0024FAE7F0B589B0CE
:101CE0001E4614460F46029007A800250570FEF711
:101CF000A7FE301A06940419FEF7A2FE029A049079
:101D00005C48006823214143080D05946043089016
:101D1000106803908068384226D010465C300190ED
:101D200003E01068806838421CD0032670028742A6
:101D300004D10398007B07A9087007980698401CF7
:101D4000EFD01446FEF77CFE0499401A05998842AC
:101D50000CD208980899491E089100282246E0D123
:101D60000590DEE72E4628E02E4626E02346206832
:101D70004168E022914341604121890062688A42C2
:101D80000CD199680122D3039942234602D09202D2
:101D9000914203D1016840229143016001214A032D
:101DA0009B6A934205D1036893430360036813431E
:101DB00003600020019A10705170304609B0F0BDE8
:101DC000F0B583B016460D460446FEF739FE301ACC
:101DD0004719FEF735FE0646264800684001000D0B
:101DE000784302902068806800210191000602D4A7
:101DF000019803B0F0BD20465C30009003E02068FD
:101E000080680006F4D5681CF9D0FEF719FE801B27
:101E1000B84207D202980299491E02910028EED1D9
:101E20000746ECE720684168E02291434160412188
:101E3000890062688A420BD1A1680122D3039942CA
:101E400002D09202914203D1016840229143016085
:101E500001214A03A36A934205D1036893430360B7
:101E60000368134303600020009A10705170032030
:101E700003B0F0BD0400002070470000B0B5401E64
:101E8000010E01D00120B0BD054D68600024E04383
:101E9000032100F053FAAC60072028602046B0BD53
:101EA00010E000E080B5FEF799FE80BDB0B594B0BB
:101EB00008AD30212846FEF72BF90024079406943C
:101EC0000594049401200D900B901220089010941A
:101ED00010200E900C9003940294019400942846D4
:101EE000FFF71EF8002815D10794069405940720E3
:101EF000049004A82146FEF747FF00280AD1039466
:101F00000294212000906846FEF7C0FE002801D10F
:101F100014B0B0BDFEF713FB70470000B0B5056804
:101F200001229407A04205D01E4B984202D01E4BBE
:101F3000984204D170239D434B682B4300E02B460D
:101F40001A4DA84208DCA0420FD0174CA0420CD07A
:101F5000194CA04209D023E0124CA04205D0144CE9
:101F6000A04202D0134CA0421AD103242402A3435E
:101F7000CC681C4380239C434B69234303608B68DC
:101F8000C3620B688362074B984205D0084B9842A6
:101F900002D0084B984201D1096901634261B0BD8A
:101FA0001C46E7E7002C014000040040FF2B0140E5
:101FB000004801400044014000200040B0B5416AA3
:101FC000CA070CD18A0714D44A071CD40A0724D4A0
:101FD000CA062CD48A0634D44A063CD44CE00122EA
:101FE000520403685C689443826A22435A608A07F9
:101FF000EAD50122120403685C689443C26A224352
:102000005A604A07E2D50122920403685C6894434F
:10201000026B22435A600A07DAD50122D203036811
:102020005C689443426B22435A60CA06D2D50122AF
:10203000120303689C689443826B22439A608A0669
:10204000CAD50122520303689C689443C26B2243A1
:102050009A604A0610D501221305026854689C4311
:10206000056C2C4354609D4206D103235B055468E4
:102070009C43436C23435360090607D50121C904DF
:10208000026853688B43806C18435060B0BD0000F9
:1020900070B582B00546802000242C50FEF7D0FC9D
:1020A00006462868006800070CD5144800900120F7
:1020B000410500222846334600F0BCF8002801D034
:1020C000032417E02868006840070CD50B480090EF
:1020D0000120810500222846334600F0ABF8002895
:1020E00001D0032406E0284674302021A967E9675F
:1020F00004702C66204602B070BDC046FFFFFF0191
:1021000070B5044600680168424A0A40A168236924
:102110000B4365691D43E1690D43154305600322C7
:10212000120343689343E2681A434260A269236A38
:1021300013430B221202856895431D438560364880
:1021400000688007000F35A213580125EA033748BD
:10215000914211D1082B21D80026C0467B441B791F
:102160005B009F44041B221B201B1B1B3400FEF73B
:1021700099FE00281BD12DE0082B2DD80026C04643
:102180007B441B795B009F4404272E272C2727279D
:102190003C00FEF787FE002827D135E0002001260D
:1021A000002804D116E0FEF78BFE002812D0400074
:1021B00061684A081018FDF7C4FF1D49014024D08A
:1021C0000007400F08432168C86035461DE01046EF
:1021D0000028ECD1354618E000200126002804D163
:1021E00012E0FEF76DFE00280ED061684A08101854
:1021F000FDF7A7FF80B2102807D32168C8603546D5
:1022000003E010460028F0D1354600206066A06645
:10221000284670BDF369FFFF301002400000000047
:1022200004000000080000000200000000127A0014
:10223000F0FF0000F0B585B004930D460446006839
:10224000C0690840401A414241410020914246D1B4
:10225000174602902046743001900A9E012000909B
:10226000C002039007E02068C0692840401B41423B
:102270004141B94232D1701CF5D0FEF7E1FB002E8E
:102280002FD00499401AB0422BD820680168490722
:10229000E9D5C169039A1142E5D003990162EFF3D0
:1022A0001080009D85F310880D2149012268136874
:1022B0008B43136080F31088EFF3108085F3108850
:1022C00021688A68AA438A6080F310882020A0676A
:1022D000E0670021019A1170D0601FE0029805B0FC
:1022E000F0BDEFF31080009D85F310880D214901AA
:1022F000226813688B43136080F31088EFF310801B
:1023000085F3108821688A68AA438A6080F3108860
:102310002020A0670021019A1170E067032005B01A
:10232000F0BD0000002805D41F2108400121814094
:10233000014801607047C04600E100E0002805D474
:102340000322034693430C4A9A1806E00F220240E8
:10235000083A03239A43074BD2188007C00E89011D
:10236000C9B28140FF23834010689843084310603E
:102370007047C0461CED00E000E400E0024B134053
:10238000084318437047C046FF070000B0B5044635
:1023900000F098F8054600F095F8401BA04205D2E1
:1023A00000BF00F08FF8401BA042F9D3B0BD000081
:1023B00080B582B0019007480068002806D07D20D3
:1023C000C300054801A90122FFF76CFA012002B001
:1023D00080BDC046140000205001002070B582B0BE
:1023E000FEF7B2F80F4E351FFEF72AFB04462868A9
:1023F000451C3068281A0190FEF7A6F8002805D081
:10240000FEF71EFB04463068281A01907D20C100AB
:102410004C43019848432946FDF793FE001902B04A
:1024200070BDC04618E000E082B0FEF7E1FBFFF7A8
:102430003DFDFFF7FBFAFFF7B5FAFFF77FFBFFF76C
:10244000A9FBFFF7CDFBFFF7FFFB0920C006012426
:1024500021022246FEF7ECFA0C4821462246FEF7FE
:10246000E7FA01A80A490022FDF7DCFE002803D0A4
:10247000014608A000F02AF801A8FDF707FF002890
:1024800003D0014609A000F021F8FEE7000400484F
:1024900000002042445256383330315F436F6E663D
:1024A0006967204572723A25640A0D004452563815
:1024B0003330315F496E6974204572723A25640A7F
:1024C0000D00000080B5FFF789FF80BD0FB410B587
:1024D00003A9044B044A029800F018F810BC08BC89
:1024E00004B01847B12300080000002002E008C82B
:1024F000121F08C1002AFAD170477047002001E07E
:1025000001C1121F002AFBD170470000FFB58FB038
:102510000F460446002606E025280AD0129A119993
:102520009047641C761C20780028F5D1304613B003
:10253000F0BD00250121A14A009500E00543641C7F
:1025400023780846203B98401042F7D120782E2867
:1025500015D1042005436078641C2A280AD101CFD4
:10256000641C00900BE000990A2251433039401856
:10257000641C00902078014630390929F3D920786D
:102580006C280ED004DC4C2813D06A2812D104E049
:1025900074280ED07A280DD10BE0012040050543A8
:1025A00007E00121090562780D43824201D16D18CF
:1025B000641C641C2078864669284AD008DC002800
:1025C000B4D058286DD0632810D0642808D140E0DA
:1025D00070286BD0732812D0752860D0782860D00E
:1025E000129A704611999047761CE5E03878694652
:1025F00008720020487202A80190012003E03868A8
:1026000001900020C0433F1D69070CD5002500E064
:102610006D1C00998D420FDA8542F9DB0199495D05
:102620000029F5D108E0002500E06D1C8542FCDBA7
:102630000199495D0029F8D1761907E001980199BF
:102640000078491C0191129A119990476D1EF5D29C
:10265000B2E00A20029000216802400F0391022894
:102660000CD001CFC117844600290DDA6246084616
:1026700052420021814194462D2008E0FF1DFF08B1
:10268000FF0003CF8446EFE7280504D52B206A46D8
:10269000107401203CE0E8073AD02020F7E70A2038
:1026A00000E0102000210391029007E0102002902A
:1026B0000021042005430820039100906802400F88
:1026C000022810D001CF0021844600200D90280759
:1026D0001FD5704670280CD0029A1020039B4240F0
:1026E0001A430CD015E0FF1DFF08FF0003CF8446FE
:1026F000EBE740206A46107401200D900CE0604624
:10270000084306D030206A46107470465074022088
:102710000D907046582804D029A001900DA80E9065
:102720000DE02CA0F9E76046039B029AFDF728FD17
:10273000019B84469B5C0E9A521E0E92137060465B
:102740000843F0D10E9805A9081A203001906807B7
:1027500001D5009801E0012000900199884203DD35
:1027600001460198081A00E000200025009006E0CC
:1027700004A8129A405D119990476D1C761C0D9823
:102780008542F5DB04E0129A302011999047761CBF
:102790000099481E00900029F5DC08E00E980E997B
:1027A0000078491C0E91129A11999047761C019954
:1027B000481E01900029F1DC641CB4E609280100E0
:1027C00030313233343536373839616263646566A7
:1027D0000000000030313233343536373839414269
:1027E00043444546000000000000000000000000D7
:1027F00001020304060708090000000001020304A7
:10280000000020410000A041000020420000A04242
:1028100048414C5F5350495F5472616E736D6974E7
:1028200052656365697665204572723A307825583D
:102830000A0D00445256383330315F496E697420B6
:10284000737563636573730A0D00000070280008D8
:102850000000002010000000EC2400088028000880
:1028600010000020C8050000FC2400080000000043
:102870000000000000127A000100000004000000C7
:04000005080000B13E
:00000001FF
