:020000040800F2
:1000000000100020552700083D2500083F25000866
:1000100000000000000000000000000000000000E0
:100020000000000000000000000000004125000862
:1000300000000000000000004325000845250008DE
:10004000A5270008A5270008A5270008A527000860
:10005000A5270008A52700084D250008A5270008AA
:1000600000000000A5270008A5270008A527000814
:10007000A5270008A5270008A5270008A527000830
:10008000A52700080000000000000000A5270008C8
:1000900000000000A5270008A5270008A5270008E4
:1000A00000000000A527000800000000A5270008A8
:1000B0000000000000000000000000000000000040
:1000C00003B47146490840004900095E49008E4466
:1000D00003BC7047002243088B4274D303098B4250
:1000E0005FD3030A8B4244D3030B8B4228D3030C08
:1000F0008B420DD3FF22090212BA030C8B4202D3AA
:100100001212090265D0030B8B4219D300E0090AD1
:10011000C30B8B4201D3CB03C01A5241830B8B42DA
:1001200001D38B03C01A5241430B8B4201D34B03C3
:10013000C01A5241030B8B4201D30B03C01A524128
:10014000C30A8B4201D3CB02C01A5241830A8B42AD
:1001500001D38B02C01A5241430A8B4201D34B0296
:10016000C01A5241030A8B4201D30B02C01A5241FA
:10017000CDD2C3098B4201D3CB01C01A52418309AE
:100180008B4201D38B01C01A524143098B4201D3E8
:100190004B01C01A524103098B4201D30B01C01A13
:1001A0005241C3088B4201D3CB00C01A524183088D
:1001B0008B4201D38B00C01A524143088B4201D3BA
:1001C0004B00C01A5241411A00D20146524110461A
:1001D0007047FFE701B5002000F006F802BDC046F9
:1001E0000029F7D076E770477047C046844608007C
:1001F0006146FFE71FB503F00BFB002801D4002187
:10020000C8421FBD10B503F093FA4042013010BD43
:1002100010B503F0FDFA002801DB002010BD01201D
:1002200010BDC04610B503F0F3FA002801DD002030
:1002300010BD012010BDC04610B503F0A1FA002882
:1002400001DC002010BD012010BDC04610B503F038
:1002500097FA002801DA002010BD012010BDC04629
:100260000448054B10B5834203D0044B002B00D04B
:10027000984710BD680000206800002000000000C2
:1002800006480749091A8B10C90FC91810B549103B
:1002900003D0044B002B00D0984710BD680000200D
:1002A000680000200000000010B5074C2378002BE8
:1002B00009D1FFF7D5FF054B002B02D0044800E021
:1002C00000BF0123237010BD680000200000000063
:1002D000A0380008054B10B5002B03D00449054891
:1002E00000E000BFFFF7CCFF10BDC04600000000DB
:1002F0006C000020A038000800B585B00C22002159
:1003000001A802F06DFC2348234B036000234360E7
:100310008360C36001220261042141610376437658
:100320008376C376C221FF31C16103629E39FF39F2
:100330004354826200F046FC00281FD101A900232B
:10034000019380235B014B6080235B058B60114828
:1003500000F0FAFC002814D1012301930D4801A9F3
:1003600000F0F2FC00280FD102230193094801A9F3
:1003700000F0EAFC00280AD105B000BD00F0DAFA6E
:10038000DCE700F0D7FAE7E700F0D4FAECE700F09A
:10039000D1FAF1E7840000200024014010B588B0B4
:1003A00004001422002103A802F01AFC2268114B59
:1003B0009A4201D008B010BD0F4B9A698021890084
:1003C0000A439A619A690A400192019A5A69802106
:1003D00089020A435A615B690B400293029B03A99D
:1003E00007230393043B4B609020C00500F0A8FD59
:1003F000E0E7C0460024014000100240F0B585B09F
:100400000D000E266E440023338003AF3B80334C37
:100410000443A4B23480902000220821C00500F0DB
:1004200054FE012002F088F92D48FA239B00009326
:1004300001233A00310001F0ABFC03B2002B3AD1AA
:100440009027FF0501220821380000F03EFE012020
:1004500002F072F90E266E44348003AC01235B4235
:10046000238000220821380000F02FFE012002F036
:1004700063F91B48FA239B000093012322003100FB
:1004800001F086FC04B2002C1DD19020012208212D
:10049000C00500F01AFE012002F04EF903AB1B88E4
:1004A000104A934217D0002D02D05B055B0D2B80C4
:1004B000200005B0F0BD0C4B0100180002F038FA26
:1004C00001246442F4E7084B0100180002F030FAFE
:1004D00001246442ECE703246442E9E70080FFFF63
:1004E00018010020EFBE0000C838000830B585B004
:1004F0000E246C440023238003AD2B804905490D55
:1005000008432080902000220821C00500F0DDFD76
:10051000012002F011F91048FA239B0000930123F7
:100520002A00210001F034FC04B2002C0BD1012080
:1005300002F002F9902001220821C00500F0C5FD5B
:10054000200005B030BD054B0100180002F0F0F9A5
:1005500001246442F4E7C04618010020C8380008AE
:10056000F0B587B005000E1C170002AA194B13CB7B
:1005700013C21B681360032401E0013CA4B2002CE9
:1005800007D0A30002AA9858311CFFF755FE002897
:10059000F3D1002F03D0A30002AA9B583B6001AA0D
:1005A000AA23DB001380A400A4B254802A889A42B4
:1005B00002D16B889C4209D0042201A9280002F0D4
:1005C00092FB01221021044800F07FFD002007B0BB
:1005D000F0BDC046B83800080004004870B582B0CD
:1005E0000500384C00221021200000F06EFD364836
:1005F00002F0A2F801221021200000F066FD0A207E
:1006000000F0CEFA2988802676013000FFF76EFFD1
:1006100084B229883000FFF769FF80B22418A4B2A1
:1006200029883000FFF762FF80B22418A4B229881D
:100630003000FFF75BFF80B22418A4B22988300095
:10064000FFF754FF80B22418A4B26988C02040018B
:10065000FFF74CFF80B22418A4B2002C2ED16420E6
:1006600002F06AF86B469C1D802021004001FFF7D4
:10067000C5FE2B882288934210D16B469C1DC0205A
:1006800021004001FFF7BAFE6B88228893420DD10A
:100690000E4802F0B3F9002002B070BD0C4C01000E
:1006A000200002F045F902204042F5E7094C010024
:1006B000200002F03DF903204042EDE701204042D6
:1006C000EAE7C04600040048A0860100643900083B
:1006D000EC38000828390008F0B5CE46474680B50A
:1006E0008BB005AC14220021200002F079FA4B4BAC
:1006F0005A69802109030A435A615A690A400192E2
:10070000019A5A698021C9030A435A615A690A4009
:100710000292029A5A69802189020A435A615A69EF
:100720000A400392039A5A698021C9020A435A6116
:100730005B690B400493049B8025AD01384B9946BF
:1007400001222900180000F0C0FC9023DB05984628
:1007500001220821180000F0B8FCF0210022C90095
:10076000404600F0B2FC2F4E00220321300000F082
:10077000ACFC01221021300000F0A7FC05950125FA
:1007800065600027A760E7602100484600F0D8FBBD
:10079000F123DB0005936560A56003239946E360C0
:1007A0002100404600F0CCFB202305936760A76042
:1007B0002100404600F0C4FB4B4605936560A560F0
:1007C000E3602100300000F0BBFB04230593842389
:1007D0009B036360A5602100300000F0B1FB102393
:1007E00005936560A560E7602100300000F0A8FB7C
:1007F00080235B0005936760A5602100300000F056
:100800009FFB00220021062000F086FB062000F05E
:1008100087FB0BB0C0BCB946B046F0BD001002402B
:10082000000800480004004810B51448144B036049
:10083000144B4360002383600122C2600361436163
:100840008361C361036200F05DFC00280CD10B489A
:10085000002100F0C5FC002809D10848002100F063
:10086000EBFC002806D110BD00F064F8EFE700F0C3
:1008700061F8F2E700F05EF8F5E7C046C40000203A
:10088000005400405D3E302010B588B004001422B2
:10089000002103A802F0A4F92268134B9A4201D068
:1008A00008B010BD114C63698022D202134363610A
:1008B000636913400193019B03A9C0231B010393A8
:1008C00012234B600F3BCB60023B0B61084800F0EA
:1008D00037FBE369802292031343E361E36913402A
:1008E0000293029BDCE7C046005400400010024027
:1008F0000004004810B5042800D010BD00F04AF9EB
:100900000100094B180002F013F800F043F904004D
:1009100080214900054800F0D1FB0200044B210072
:10092000180002F005F8E8E77C39000800040048E8
:100930008839000872B6FEE710B594B008AC3022D2
:100940000021200002F04CF91022002104A802F03E
:1009500047F910220021684602F042F9112308935A
:10096000103B09930D930F330E930E3B109380238E
:100970005B021193A0239B03129305231393200082
:1009800000F09CFC002819D104A807230493053B20
:10099000436000238360C360012100F00DFF002845
:1009A0000ED1684621230093002302931033039352
:1009B00000F0B2FF002805D114B010BDFFF7BAFF58
:1009C000FFF7B8FFFFF7B6FF00B583B000F0C6F839
:1009D000FFF7B2FFFFF780FEFFF78EFCFFF724FF63
:1009E00000F036F801F0F8FD802190200122490046
:1009F000C00500F06AFB01220121104800F065FBF0
:100A000000220F4901A8FFF7ABFD011E0ED101A87E
:100A1000FFF7E4FD011E0DD180218901094800F096
:100A20005AFBFA20800000F0BBF8F5E7064801F019
:100A30007FFFECE7054801F07BFFEDE7000400488D
:100A400000002042000800489C390008B439000822
:100A500010B51148114B036082235B0043600023F3
:100A60008360F0221201C260036101224261802290
:100A700092008261F13AFF3AC2610362436283628B
:100A8000093AC2620363436301F000F9002800D110
:100A900010BDFFF74FFFFBE71801002000300140B9
:100AA00010B588B004001422002103A802F098F8C1
:100AB0002268134B9A4201D008B010BD114B9A69BD
:100AC000802149010A439A619A690A400192019A78
:100AD0005A698021C9020A435A615B690B4002933B
:100AE000029B03A9E0231B02039302234B60013BFB
:100AF0008B600233CB60044800F022FADCE7C0468A
:100B000000300140001002400004004810B504000D
:100B10000F4B1978FA208000FFF7DCFA01000D4B2B
:100B20001868FFF7D7FA00F007FA00280DD1032C58
:100B300001D901200AE0013000222100404200F0EA
:100B4000EBF9054B1C60002000E0012010BDC04601
:100B500000000020080000200400002010B5064A14
:100B6000136810210B4313600320FFF7CFFF00F041
:100B70008DFB002010BDC04600200240034A1168D2
:100B8000034B1B785B1813607047C0467C01002044
:100B900000000020014B18687047C0467C0100200F
:100BA00070B50400FFF7F6FF0500631C02D0044B8C
:100BB0001B78E418FFF7EEFF401BA042FAD370BD8C
:100BC0000000002070B5041E00D1B4E0836B002B40
:100BD00000D180E0A36BDB0600D5A6E023689A680D
:100BE000042108001040114200D09EE0A26B53493E
:100BF0000A400631FF310A43A263996803220A4082
:100C0000012A6ED0DA6818218A43A1680A43DA60A3
:100C1000226813699B009B0861680B43136122687B
:100C2000D36847490B40D360237E9B03627ED20387
:100C30001343A17E4A031343A26A012A58D080229B
:100C400052011343E26813432269022A52D003433C
:100C50002422A25C52001343E27E012A4CD0E269B6
:100C6000C221FF318A4202D0216A0A43134321681C
:100C7000CA681A43CA60E26A802149058A420DD0D7
:100C8000012A0BD0022A09D0032A07D0042A05D052
:100C9000052A03D0062A01D0072A0AD12068416913
:100CA00007229143416120684169E56A2A400A436D
:100CB00042612268D26823490A409A422BD0A36B32
:100CC00012229343023A1343A363E36B0F3A134395
:100CD000E36301202EE0C36334228354FFF75EFBFD
:100CE00078E71A68D2079AD4DA68120497D489E7A9
:100CF0000200A6E70420AAE7002903D180225202BD
:100D00001343ACE7A26B20210A43A263E26B1F39B5
:100D10000A43E263A3E70023E363A36B0322934345
:100D2000023A1343A363002004E0A36B1022134391
:100D3000A363012070BD0120FCE7C046FDFEFFFF5C
:100D40001902FEFFE7FF3F8330B583B004000023A4
:100D500001933433C35C012B00D181E034230122A1
:100D6000C254026893685B076CD448683D4B984254
:100D70004DD0936A0D680120A84003439362E36A53
:100D8000072B27D8002B10D18868226855690723C4
:100D90002B40984209D0506907239843506120683E
:100DA00042698D682B40134343610B681A00103A67
:100DB000022A51D82C4A1268102B13D0112B0ED0B6
:100DC00080235B041343284A13600B68102B0CD05C
:100DD00000203CE0802252059342E6D0D4E78023F5
:100DE000DB03EFE780231B04ECE7204B1868204966
:100DF000FFF770F983001B185B00019302E0019B71
:100E0000013B0193019B002BF9D100201FE0936A65
:100E10000D680120A840834393620B681A00103AC2
:100E2000022A1BD8104A1268102B09D0112B05D0AA
:100E3000104B13400C4A1360002008E00E4BF8E7FB
:100E40000E4BF6E7836B2022134383630120342388
:100E50000022E25403B030BD0020F8E70020F6E79E
:100E60000220F7E7011000000827014008000020D9
:100E700040420F00FFFFFFFEFFFFBFFFFFFF7FFFAE
:100E800070B5002811DB8308134DC0339B005C59FB
:100E900003221040C000FC3216008640B443890192
:100EA0000A40824022435A5170BD0F230340083B41
:100EB0009B0806339B00094A944663445C680322FE
:100EC0001040C000FC3215008540AC4389010A4047
:100ED000824022435A60E7E700E100E000ED00E0D5
:100EE000013880235B0498420FD2094A50600948B8
:100EF000036A1B021B0AC02109060B43036200237D
:100F0000936007331360002070470120FCE7C04660
:100F100010E000E000ED00E010B5FFF7B1FF10BDFC
:100F2000002805DB1F22024001239340014A136081
:100F30007047C04600E100E010B5FFF7D1FF10BDDB
:100F4000F0B583B0002356E086685F000324BC4000
:100F5000A643CC68BC4034438460446894434E68E4
:100F60003609012232409A402243426053E0DE08B3
:100F70000836B600375805321A4092000F249440C4
:100F8000A7430C69944022003A43325056E00226AF
:100F900000E00026A64034003C4302329200424E5C
:100FA0009451424A9768EA433E00AE434C68E402DB
:100FB00001D53E002E433D4CA660E7683E0016403A
:100FC0004C68A40201D53E002E43384CE6606768A9
:100FD0003E0016404C68A40301D53E002E43334C1E
:100FE0006660266832404C68E40301D52A0032432B
:100FF0002E4C226001330C682200DA4051D00122CD
:101000009A40250015401442F4D04E680324344021
:10101000013C012C98D94C6803222240032A08D0B5
:10102000C4685E000322B24094438A68B2402243FF
:10103000C2604C6803222240022A98D004685E00F5
:1010400003221700B740BC434F683A40B2402243E6
:1010500002604C68C02292021442CBD0144CA669A4
:1010600001221643A661A46922400192019A9A08BE
:10107000941CA4000C4EA75903241C40A4000F2666
:10108000A640B7439026F605B04282D0094EB04242
:1010900005D0094EB04200D179E705267AE701264E
:1010A00078E703B0F0BDC0460000014000040140F5
:1010B00000100240000400480008004803690B4289
:1010C00001D0012070470020FCE7002A01D0816197
:1010D00070478162FCE7426913000B401B04914397
:1010E0000B4383617047000010B5054B5B691842E4
:1010F00000D110BD024B5861FFF7FCFBF9E7C04679
:101100000004014010B5041E60D04123C35C002BD5
:1011100048D041232422E2542268136801218B43E2
:101120001360636822682A490B4013612268936840
:1011300028490B409360E368012B39D0A1682268ED
:1011400084231B020B439360E368022B37D0226891
:10115000536821490B405360226851681F4B0B4371
:1011600053602268D3681B490B40D36023696269CE
:101170001343A269120221681343CB60E369216A19
:1011800022680B4313602268136801210B4313602C
:101190000023636441221F31A15423630132A3540D
:1011A000002010BD40330022C254FFF76DFBB0E7B2
:1011B000A168226880231B020B439360C4E7226866
:1011C000516880231B010B435360C5E70120E8E70A
:1011D000FFFFFFF0FF7FFFFFFFF7FFFF0080000230
:1011E000F0B54123C35C202B20D12033C35C012BFD
:1011F0001ED0402401220255412524234355066870
:10120000336893433360066833680A4F3B4033606A
:10121000066833680B43336001680B6813430B6047
:1012200020234355002303550020F0BD0220FCE796
:101230000220FAE7FFEFFFFFF0B54123C35C202B4C
:101240001ED12033C35C012B1CD040240122025547
:101250004125242343550668336893433360066869
:101260003368094F3B4009021943316001680B683C
:1012700013430B6020234355002303550020F0BD8A
:101280000220FCE70220FAE7FFF0FFFF82B00A4BE2
:10129000996901221143996199690A400092009A63
:1012A000DA69802149050A43DA61DB690B40019361
:1012B000019B02B07047C0460010024070B582B07A
:1012C000041E00D12EE20368DB0726D5AE4B5A6818
:1012D0000C231340042B18D0AB4B5A680C2313403B
:1012E000082B0ED06368012B3CD0002B51D1A64BAC
:1012F0001A68A6490A401A601A68A5490A401A6085
:1013000036E0A14B5B68DB03ECD59F4B1B689B036E
:1013100003D56368002B00D107E223689B0772D5D1
:10132000994B5B680C221A425DD0974B5A680C238C
:101330001340082B53D0E368002B00D185E0924A7C
:10134000136801210B431360FFF724FC05008E4B4B
:101350001B689B0770D4FFF71DFC401B0228F6D9C1
:101360000320E0E1884A116880235B020B4313608D
:101370006368002B25D0FFF70DFC0500824B1B682E
:101380009B03CAD4FFF706FC401B6428F6D9032050
:10139000C9E1052B09D07C4B1A687C490A401A60C8
:1013A0001A687B490A401A60E2E7774B1968802285
:1013B000D2020A431A601968802252020A431A6054
:1013C000D6E7FFF7E7FB05006F4B1B689B03A4D52F
:1013D000FFF7E0FB401B6428F6D90320A3E16A4B2A
:1013E0005B68DB03A7D4684B1B689B0703D5E368E6
:1013F000012B00D09BE164490B68F82293432269DA
:10140000D20013430B6023681B0744D5E369002B0C
:101410002ED05D4A536A01210B435362FFF7BAFB9A
:101420000500594B5B6A9B0735D4FFF7B3FB401BA4
:101430000228F6D9032076E153490B68F82293433A
:101440002269D20013430B60DDE74F4A1368012184
:101450008B431360FFF79EFB05004B4B1B689B07FC
:10146000D1D5FFF797FB401B0228F6D903205AE19C
:10147000454A536A01218B435362FFF78BFB0500FA
:10148000414B5B6A9B0706D5FFF784FB401B022894
:10149000F6D9032047E123685B0700D480E03A4B8C
:1014A000DB69DB001DD4384BDA69802149050A432A
:1014B000DA61DB690B400193019B0125354B1B6809
:1014C000DB0510D5A368012B21D0002B36D12E4B84
:1014D0001A6A01218A431A621A6A03318A431A621C
:1014E0001AE00025EAE72B4A116880235B000B43D2
:1014F0001360FFF74FFB0600264B1B68DB05E1D4AA
:10150000FFF748FB801B6428F6D903200BE11E4A35
:10151000136A01210B431362A368002B24D0FFF749
:1015200039FB0600184B1B6A9B0737D4FFF732FBC9
:10153000801B194B9842F5D90320F4E0052B09D004
:10154000114B1A6A01218A431A621A6A03318A43CB
:101550001A62E1E70C4B1A6A04210A431A621A6AFA
:1015600003390A431A62D7E7FFF714FB0600064B5C
:101570001B6A9B0712D5FFF70DFB801B064B984299
:10158000F5D90320CFE0C04600100240FFFFFEFF68
:10159000FFFFFBFF0070004088130000012D33D0D7
:1015A0002368DB0610D56369012B33D0053351D195
:1015B000654A536B04218B435363536BF4318B4364
:1015C000A169C9000B435363236A002B00D1B0E02B
:1015D0005D4A51680C220A40082A00D18AE0022B99
:1015E0004FD0594A136859490B401360FFF7D2FA9C
:1015F0000400554B1B689B017AD5FFF7CBFA001B03
:101600000228F6D903208EE04F4AD36950490B4097
:10161000D361C5E74C4B5A6B04210A435A635A6B9A
:1016200003390A435A63FFF7B5FA0500464B5B6B73
:101630009B0706D4FFF7AEFA401B0228F6D9032019
:1016400071E041494B6BF8229343A269D2001343E6
:101650004B63B9E73C4B5A6B04210A435A635A6BFC
:1016600003398A435A63FFF795FA0500364B5B6BE3
:101670009B07A9D5FFF78EFA401B0228F6D9032055
:1016800051E0314A136831490B401360FFF782FA89
:1016900005002D4B1B689B0106D5FFF77BFA401B0D
:1016A0000228F6D903203EE0274BDA6A0F218A434D
:1016B000E16A0A43DA625A6826490A40A16A606A06
:1016C00001430A435A601968802252040A431A608F
:1016D000FFF760FA04001C4B1B689B0106D4FFF760
:1016E00059FA001B0228F6D903201CE000201AE05A
:1016F000002018E0012B1ED0134B5A68D86A8023B3
:101700005B021340616A8B4217D10F230340E16AE9
:101710008B4214D1F0239B031A40A36A9A4210D142
:10172000002000E0012002B070BD0120FBE7012095
:10173000F9E70020F7E70120F5E70120F3E70120B2
:10174000F1E70120EFE7C04600100240FFFFFFFE77
:10175000FFFFFFEFFFFFC2FF10B5124B5A680C23CB
:101760001340042B1AD0082B1AD1910C07331940BF
:101770000D48445C0B49C96A0B400C49C95CD20353
:1017800004D50B48FEF7A6FC604308E06201121B7B
:1017900093019B1ADB001B19180200E0044810BDDE
:1017A0000448FCE700100240DC390008CC3900088E
:1017B00000366E0100127A0070B504000D0000289A
:1017C00000D17EE0434B1A68012313408B420AD2BA
:1017D00040490B68012293432B430B600B681A406E
:1017E000AA4200D06FE023689A070ED55B0705D5A3
:1017F000394A5168E023DB000B435360364A536893
:10180000F0218B43A1680B4353602368DB072DD580
:101810006368012B1ED0022B22D02F4A1268920738
:1018200053D52D494A680320824313434B60FFF789
:10183000B1F90600284B5B680C221A4063689B00D4
:101840009A4213D0FFF7A6F9801B244B9842F1D996
:10185000032035E0204A12689203E2D401202FE0F1
:101860001D4A12689201DCD4012029E0194B1A6844
:1018700001231340AB4209D916490B680122934357
:101880002B430B600B681A40AA4220D123685B07E8
:1018900006D5114A536812490B40E1680B43536067
:1018A000FFF75AFF0C4B5A6812090F2313400D4AD9
:1018B000D35CD8400C4B18600320FFF727F90020B9
:1018C00070BD0120FCE70120FAE70120F8E70120C4
:1018D000F6E7C046002002400010024088130000D6
:1018E000FFF8FFFFF439000808000020014B1868DA
:1018F0007047C0460800002010B5FFF7F7FF044B03
:101900005A68120A07231340024AD35CD84010BD1C
:1019100000100240EC39000870B582B00400036882
:10192000DB0339D53E4BDB69DB004CD43C4BDA6939
:10193000802149050A43DA61DB690B400193019B71
:101940000125384B1B68DB053FD5354B1A6AC02390
:101950009B00110019401A4215D06368C022920002
:1019600013408B420FD02E4B1A6A2F4911401E6A2A
:101970008020400230431862186A2C4E30401862B2
:101980001962D20735D4264A136A27490B40616889
:101990000B431362012D3BD02368DB0706D5204A99
:1019A000136B03218B43A1680B43136323689B06CE
:1019B00033D51B4A136B10218B43E1680B43136330
:1019C000002002B070BD0025BBE7164A11688023D5
:1019D0005B000B431360FFF7DDF80600114B1B683B
:1019E000DB05B2D4FFF7D6F8801B6428F6D90320B4
:1019F000E7E7FFF7CFF80600094B1B6A9B07C2D445
:101A0000FFF7C8F8801B0A4B9842F5D90320D8E7A6
:101A1000D36908490B40D361BEE70020D1E7C04637
:101A20000010024000700040FFFCFFFFFFFFFEFFC0
:101A300088130000FFFFFFEFF0B5D6464F4646463D
:101A4000C0B582B006000D0090461F00FFF7A2F857
:101A50000A9B181A8146B944FFF79CF882462C4B22
:101A60001B685B011B0D4A465343019333689C6816
:101A70002C40641B63425C41444542D07B1CF5D042
:101A8000FFF788F85346C01A484508D2019A002A41
:101A900000D04A46019B013B01939146E6E732683C
:101AA0005368E0218B435360726882235B009A4243
:101AB0000CD0B26A80239B019A4216D05D2301228A
:101AC000F254013B0022F25403201BE0B368802251
:101AD0001202934203D08022D2009342E9D13268AD
:101AE000136840218B431360E3E7326813680949A8
:101AF0000B4013603268116880239B010B43136015
:101B0000DCE7002002B0E0BCBA46B146A846F0BD12
:101B100008000020FFDFFFFFF0B5DE4657464E46C7
:101B20004546E0B583B007000D00160098466B46A9
:101B30000022DA70FFF72EF80C9B181A40448146F9
:101B4000FFF728F882463B689B46344B1B689A0097
:101B5000D218D3009B1A1B0D4A465343019302E04F
:101B60004346013311D13B689C682C40B4424DD0B0
:101B7000C023DB009D42F3D1002EF1D15B461B7BDD
:101B8000DBB26A46D370D378EAE7FFF703F853462F
:101B9000C01A484508D2019A002A00D04A46019B43
:101BA000013B01939146DEE73A685368E0218B439D
:101BB00053607A6882235B009A420CD0BA6A802311
:101BC0009B019A4216D05D230122FA54013B002268
:101BD000FA5403201BE0BB6880221202934203D018
:101BE0008022D2009342E9D13A68136840218B43A6
:101BF0001360E3E73A68136809490B4013603A68D9
:101C0000116880239B010B431360DCE7002003B0C5
:101C1000F0BCBB46B246A946A046F0BD0800002075
:101C2000FFDFFFFF70B582B004000D001600C02179
:101C300000922B0000224901FFF76EFF002818D107
:101C400000962B00002280212000FFF7F5FE0028DF
:101C500016D1C02100962B000022C9002000FFF7FA
:101C60005BFF00280AD0236E202213432366032043
:101C700004E0236E202213432366032002B070BDCC
:101C8000236E2022134323660320F7E770B5041E5A
:101C900000D178E0436A002B07D142680533FF3357
:101CA0009A4205D00023C36102E00023036143612F
:101CB0000023A3625D33E35C002B5AD05D23022234
:101CC000E2542268136840218B431360E368E022EA
:101CD000D200934254D90022F02109018B4205D051
:101CE000E021C9008B4201D00023A36263688221F6
:101CF00049000B40A1688420000201400B43206989
:101D0000022101400B436069012108400343A0699F
:101D10008025AD0028400343E5693820284003436F
:101D2000256A802028400343A06A8025AD01284011
:101D3000256803432B60608B04230340656A1020F1
:101D400028400343656B082028400343E068F025E2
:101D50002D01284003432068134343602268D36960
:101D60000A480340D361002323665D33E154002019
:101D700070BD5C330022E2542000FEF791FE9DE727
:101D800080225201A8E70120F2E7C046FFF7FFFFDB
:101D9000F0B583B00400009101921E00089D5C2301
:101DA000C35C012B00D116E15C230122C254FEF773
:101DB000F1FE07005D23E35CD9B26268012B0BD012
:101DC00082235B009A4200D0F3E0A368002B00D08E
:101DD000F5E0042900D0F4E0009B002B00D1F2E0F4
:101DE000019B002B00D1F0E0002E00D1EFE05D233D
:101DF000E35C042B02D05D230522E254002323661A
:101E0000019A22644622A652023AA652009AA2637E
:101E1000E687A687E3642365E268E023DB009A4255
:101E200023D9226853686D490B40536023681A68B0
:101E3000520603D41A6840210A431A60E268E0237C
:101E4000DB009A4254D96368002B01D0012E0AD1DD
:101E5000A26B23681288DA60A36B0233A363E38F5B
:101E6000013B9BB2E38701262CE022685168802366
:101E70005B010B435360D9E7A36B1B88D360A36B53
:101E80000233A363E38F013B9BB2E3870026226802
:101E90009368DB070FD54623E35A002B0BD0D2689B
:101EA000236C1A80236C023323644622A35A013B1D
:101EB0009BB2A3520126FEF76DFEC01BA84201D3C0
:101EC0006B1C10D1E38F002B03D14633E35A002B58
:101ED0005ED0226893689B07D9D5E38F002BD6D0BC
:101EE000012ED4D1C8E75D230122E254032061E032
:101EF0006368002B01D0012E0AD1A26B23681278EF
:101F00001A73A36B0133A363E38F013B9BB2E38797
:101F100001261CE022689368DB070FD54623E35AAD
:101F2000002B0BD0236C127B1A70236C01332364BB
:101F30004622A35A013B9BB2A3520126FEF72AFE7A
:101F4000C01BA84201D36B1C1DD1002D1BD0E38FF9
:101F5000002B03D14633E35A002B19D02268936833
:101F60009B07D7D5E38F002BD4D0012ED2D1A36B02
:101F70001B781373A36B0133A363E38F013B9BB205
:101F8000E3870026C6E75D230122E254032011E027
:101F90003A0029002000FFF745FE002802D0202348
:101FA00023660120236E002B13D15D330122E254FE
:101FB00000E002205C230022E25403B0F0BD0220C6
:101FC000F8E70220F6E70120F4E70120F2E701201C
:101FD000F0E70120EEE70220EFE7C046FFEFFFFF4A
:101FE00010B5EFF3108C012282F3108801680B68A2
:101FF000124C23400B608CF31088EFF3108C82F3AB
:10200000108801688B6893438B608CF31088036E93
:10201000012B06D080232022C25000230366836652
:1020200010BDEFF3108183F3108802681368323417
:10203000FF34A343136081F31088EBE7DFFEFFFF5B
:1020400010B5040083680269134342691343C269EF
:10205000134301680A684848024013430B60226832
:10206000536846490B40E1680B435360A369226AF9
:102070001A4321688B684248034013438B60414BED
:102080001A6B03231340022B0AD005D8002B16D05D
:10209000012B16D1033304E0032B14D1013B00E0E4
:1020A0000823E0698022120290420ED0042B58D0FF
:1020B00039D8002B3ED0022B33D133483EE00023E9
:1020C000EFE71023EDE71023EBE7042B26D007D82A
:1020D000002B09D0022B01D12B4809E001203CE064
:1020E000082B05D0012038E0FFF706FC00283BD084
:1020F000400061684B08C018FDF7ECFF0200103A81
:10210000224B9A4232D882B20F239A434008083BAE
:10211000034013432268D36000201EE0FFF71CFB3E
:10212000E4E7012019E0082B02D18020000205E03D
:10213000012012E0FFF7E0FB002819D061684B088E
:102140001818FDF7C7FF0200103A104B9A4211D839
:1021500023680004000CD86000200023A366E36617
:1021600010BDFFF7F9FAE7E70020F6E70120F4E7F2
:102170000020F2E70120F0E7F369FFFFFFCFFFFF48
:10218000FFF4FFFF0010024000127A00EFFF000092
:10219000436A1B0706D5026853682C490B40416B04
:1021A0000B435360436ADB0706D50268536828492E
:1021B0000B40816A0B435360436A9B0706D5026854
:1021C000536824490B40C16A0B435360436A5B0761
:1021D00006D50268536820490B40016B0B435360DE
:1021E000436ADB0606D5026893681C490B40816B85
:1021F0000B439360436A9B0606D5026893681849AF
:102200000B40C16B0B439360436A5B060BD50268BE
:10221000536814490B40016C0B435360026C8023DC
:102220005B039A420AD0436A1B0606D502685368CC
:102230000D490B40816C0B43536070470268536833
:102240000A490B40416C0B435360ECE7FF7FFFFFF3
:10225000FFFFFDFFFFFFFEFFFFFFFBFFFFEFFFFFA5
:10226000FFDFFFFFFFFFEFFFFFFFF7FFFFFF9FFF16
:10227000F8B5CE46474680B506000D0017009946D2
:10228000089B98463368DC692C40641B63425C41C0
:10229000BC4233D143460133F4D0FEF77BFC4B46BE
:1022A000C01A40452FD84346002B2ED03268136801
:1022B0005B07E7D5802DE5D0402DE3D0D3691B0720
:1022C00010D4D3691B05DDD580231B0113623000B8
:1022D000FFF786FE84232022F2500C3B0022F254AA
:1022E00003200CE0082414623000FFF779FE8423F9
:1022F000F4500C3B0022F254012000E00020C0BC4E
:10230000B946B046F8BD0320F9E70320F7E7F0B57A
:10231000C64600B582B004000D0090461E00C36F93
:10232000202B61D1002964D0002A64D082688023E8
:102330005B019A4204D10369002B01D1CB075CD425
:1023400084230022E250633BE367FEF723FC07008F
:1023500050234246E2520233E252A26880235B01DC
:102360009A4202D00023984617E02369002B28D018
:102370000023984611E02023E367032035E043461D
:102380001B882268DB05DB0D138502239C46E04495
:102390005223E25A013A92B2E2525223E35A002BFC
:1023A00012D000963B00002280212000FFF760FF42
:1023B0000028E0D1002DE2D02A7823681A85013563
:1023C000E6E7A8460025E8E700963B00002240210A
:1023D0002000FFF74DFF002802D12023E36704E02F
:1023E0002023E367032000E0022002B080BCB8464F
:1023F000F0BD0120F9E70120F7E70120F5E7000033
:1024000030B583B0040084230022C250FEF7C2FB23
:10241000050023681B681B070FD423681B685B0734
:1024200029D42023E3678022A35000232366636618
:10243000083AA354002003B030BD8021224B009302
:102440000300002289032000FFF712FF0028E4D0D8
:10245000EFF31081012383F3108822681368802032
:102460008343136081F310882023E36758330022ED
:10247000E2547D38DFE78021134B00932B000022CC
:10248000C9032000FFF7F4FE0028CAD0EFF3108044
:10249000012282F3108821680B680C4D2B400B60E1
:1024A00080F31088EFF3108082F3108821688B6826
:1024B00093438B6080F3108880231F32E250083BE7
:1024C0000022E2540320B6E7FFFFFF01DFFEFFFF1B
:1024D00010B5041E2ED0C36F002B21D02423E36738
:1024E0002268136801218B431360636A002B1DD19E
:1024F0002000FFF7A5FD012811D0226853680E497E
:102500000B405360226893682A218B4393602268B2
:10251000136829390B4313602000FFF771FF10BDCA
:1025200078330022C25400F079F8D7E72000FFF793
:102530002FFEDDE70120F2E7FFB7FFFFFEE7FEE732
:102540007047704710B5FEF719FB10BD10B5042099
:10255000FEF7CAFD10BD70B50C001600002504E0A2
:1025600000E000BF207001350134B542F8DB3000D7
:1025700070BD01204042704780239B014B600020CA
:1025800070470120704700207047000010B503001D
:102590000C4A0D49521A0D490968002907D00B4908
:1025A0000868C318934206D8084A136010BD07494B
:1025B00007480860F3E700F069FB0C230360012083
:1025C0004042F3E7001000200004000080010020DA
:1025D000600300207047000010B50D480D4B0360EC
:1025E000E1235B02436000238360C36003610C222C
:1025F00042618361C36103624362FFF769FF0028A0
:1026000003D1054B01221A6010BDFEF793F9F8E7DC
:1026100084010020003801400C02002070B588B011
:1026200004001422002103A800F0DAFA22681E4BED
:102630009A4201D008B070BD1C4B9A698021C90133
:102640000A439A619A690A400092009A5A69802165
:1026500089020A435A615A690A400192019A5A69E9
:102660008021C9020A435A615B690B400293029BB5
:1026700003AC80231B0203930226049603250695D0
:102680000123079390202100C005FEF759FC402349
:1026900003930496002305930695079321000448AD
:1026A000FEF74EFCC6E7C04600380140001002406D
:1026B0000004004810B51400064B1B68002B01D124
:1026C000012010BD92B20448044BFFF720FE200009
:1026D000F7E7C0460C02002084010020FFFF000045
:1026E00030B583B0114C2368FEF754FA65680135A4
:1026F000A368EB1A01932368DB0310D44401241A66
:10270000A4002418E400019B5801C01A8000C018DE
:10271000C0002900FDF7DEFC201803B030BDFEF735
:1027200039FAA368EB1A0193E8E7C04610E000E02D
:1027300010B5FFF7D5FF10BD70B50500FFF7F8FF26
:10274000040000E0C046FFF7F3FF001BA842F9D3E6
:1027500070BD00000D488546FFF73CFF0C480D4951
:102760000D4A002302E0D458C4500433C4188C42EC
:10277000F9D30A4A0A4C002301E013600432A24252
:10278000FBD300F089FAFEF71FF9FEE700100020E6
:102790000000002068000020403A00086800002087
:1027A0005C030020FEE70000002310B50400036076
:1027B0004360836081814366C281036143618361B9
:1027C000190008225C3000F00BFA0B4B24626362A4
:1027D0000A4BA3620A4BE3620A4B23630A4B9C42F7
:1027E00005D00A4B9C4202D0094B9C4203D12000E9
:1027F000583000F075FA10BD112A0008392A000877
:10280000712A00089D2A000810020020780200208A
:10281000E002002010B5034A0349044800F06CF8B8
:1028200010BDC0460C0000208D3500081C000020A3
:1028300041680B4B10B50400994201D000F0A6FE90
:10284000A168084B994202D0200000F09FFEE16889
:10285000054B994202D0200000F098FE10BDC04602
:102860001002002078020020E002002010B5094B81
:10287000094A04211A6009480022FFF795FF012246
:1028800009210748FFF790FF022212210548FFF7B0
:102890008BFF10BD480300201528000810020020FF
:1028A00078020020E002002010B5024800F019FA7A
:1028B00010BDC0465103002010B5024800F012FAC6
:1028C00010BDC0465103002010B50400FFF7ECFF17
:1028D000236A002B02D0FFF7EFFF10BD044B2362E9
:1028E000044B1B68002BF6D1FFF7C0FFF3E7C0468F
:1028F0003128000848030020F7B514000026009096
:102900000191A5686768013F04D52468002CF8D1BF
:102910003000FEBDAB89012B08D90E22AB5E01331E
:1029200004D029000098019B984706436835EAE7E0
:102930000FB407B5054904AB086804CB816801935F
:1029400000F0FEFA03B008BC04B0184718000020DD
:10295000036A70B505000E008468002B01D1FFF7F3
:10296000B3FF636EDB0705D4A3899B0502D4A06D7A
:1029700000F0B7F9A3891B0702D52369002B1FD1EB
:102980002100280000F0D2F8002819D001256D425E
:10299000636EDB0705D4A3899B0502D4A06D00F00C
:1029A000A1F9280070BD0136A360002B04DAA269EA
:1029B000934216DB0A2914D023685A1C226019702E
:1029C000A3683178013B0029EDD1A360002B0FDA19
:1029D000220028000A3100F067F80130D6D00A251D
:1029E000D6E72200280000F05FF80130E8D1CDE7FB
:1029F00023685A1C22600A221A70F0E710B5034BB4
:102A000001001868FFF7A4FF10BDC04618000020A1
:102A100070B50C000E25495F00F010F9002803DBAB
:102A2000636D1B18636570BDA389024A1340A381BF
:102A3000F9E7C046FFEFFFFFF8B51F008B890500DF
:102A40000C001600DB0505D50E23C95E002202230B
:102A500000F0E0F8A389054A28001340A381320062
:102A60000E23E15E3B0000F0FDF8F8BDFFEFFFFF35
:102A700070B50C000E25495F00F0CCF80C22A35E67
:102A8000421C03D1044A1340A38170BD802252012D
:102A90001343A3816065F8E7FFEFFFFF10B50E2336
:102AA000C95E00F0A5F810BDF8B506000D001400D1
:102AB000002804D0036A002B01D1FFF705FFA369AA
:102AC000A360A3891B0702D52369002B09D121002C
:102AD000300000F02BF8002803D001256D422800BB
:102AE000F8BD23692068EFB2C01A6369EDB2834272
:102AF00005DC2100300000F049FD0028EDD1A3687D
:102B00000130013BA36023685A1C22601F70636977
:102B1000834204D0A389DB07E1D50A2DDFD1210050
:102B2000300000F033FD0028D9D0D6E72B4B70B52C
:102B3000050018680C00002804D0036A002B01D19E
:102B4000FFF7C2FE0C22A35E1A0722D4DA0607D4CE
:102B500009222A60373201201343A381404270BD0D
:102B60005A0713D5616B002908D0230044339942DA
:102B700002D0280000F0C0F8002363632422A38958
:102B800093430022626022691BB222600822134331
:102B9000A3812269002A07D19A0501D51B0603D516
:102BA0002100280000F048FD0C23E25E0121130003
:102BB0000B400A420CD00023A36063695B42A3610F
:102BC000002023698342CAD11306C8D54023C2E737
:102BD000910700D46369A360F2E7C04618000020A3
:102BE00003008218934200D1704719700133F9E74E
:102BF000002370B5064D040008002B60FFF7B9FCF8
:102C0000431C03D12B68002B00D0236070BDC0464D
:102C10004C03002070B50400080011001A000023C6
:102C2000054D2B60FFF7AFFC431C03D12B68002B35
:102C300000D0236070BDC0464C03002070B5040076
:102C4000080011001A000023054D2B60FFF783FCDC
:102C5000431C03D12B68002B00D0236070BDC046FD
:102C60004C03002070B50400080011001A00002376
:102C7000054D2B60FFF71EFD431C03D12B68002B75
:102C800000D0236070BDC0464C030020014B186883
:102C90007047C0461800002070B500260C4C0D4D42
:102CA000641BA410A64209D1002600F0F9FD0A4CCD
:102CB0000A4D641BA410A64205D170BDB300EB58A9
:102CC00098470136EEE7B300EB5898470136F2E734
:102CD000383A0008383A00083C3A0008383A000808
:102CE000704770477047002310B59A4200D110BD5D
:102CF000CC5CC4540133F8E770B505000C1E10D04D
:102D0000043C2368002B00DAE418280000F0E0F807
:102D10001D4A1368002B05D163601460280000F081
:102D2000DFF870BDA34208D9206821188B42F3D187
:102D300019685B6809182160EEE71A005B68002BD0
:102D400001D0A342F9D911685018A0420BD12068D4
:102D50000918501811608342E0D118685B68411867
:102D600011605360DAE7A04202D90C232B60D5E74B
:102D7000206821188B4203D119685B68091821600B
:102D800063605460CAE7C0465803002070B50F4E18
:102D90000D0031680400002902D100F0ABFC306066
:102DA0002900200000F0A6FC431C03D101256D4240
:102DB000280070BD0323C51C9D43A842F8D0291AE2
:102DC000200000F097FC0130F2D1EFE7540300201F
:102DD000F7B50322CB1C9343083305001F000C2BCF
:102DE00034D20C27B94233D8280000F071F8374E9E
:102DF00033681C00002C2FD139002800FFF7C6FFD4
:102E00000400431C5FD134680094009B002B4AD11E
:102E1000002C52D023682800E3180099019300F099
:102E200069FC019B834248D123682800FF1A3900BE
:102E3000FFF7ACFF013040D02368DB192360336813
:102E40005A68002A33D1009B336019E0002BC9DA9D
:102E50000C232B600020FEBD2168C91B20D40B2948
:102E60000AD9E2192760A34204D132606368116075
:102E7000536005E05A60F9E76268A3420ED1326000
:102E8000280000F02DF8200007220B30231D90436E
:102E9000C21A9842DFD01B1AA350DCE75A60EFE752
:102EA00023006468A6E7009C63680093ADE71A00FE
:102EB0005B68A342FBD10023DAE70C2328002B60D8
:102EC00000F00EF8C6E70760DAE7C04658030020B6
:102ED00010B50248FFF705FF10BDC04650030020A3
:102EE00010B50248FFF7FEFE10BDC046500300209B
:102EF000936810B5013B9360002B04DA9469A342F8
:102F000007DB0A2905D01368581C106019700800E7
:102F100010BDFFF7C9FD0100F9E7F8B506000F0085
:102F20001400D518AC4201D1002007E021783A0006
:102F30003000FFF7DDFF0134431CF3D1F8BD000082
:102F4000F0B59FB00D0016001C000290002804D0C0
:102F5000036A002B01D1FFF7B7FC6B6EDB0705D4CA
:102F6000AB899B0502D4A86DFFF7BBFEAB891B079D
:102F700002D52B69002B13D129000298FFF7D6FD4B
:102F800000280DD06B6EDB0703D5012040421FB037
:102F9000F0BDAB899B05F8D4A86DFFF7A3FEF4E75D
:102FA0000023292102AA52180B93203313700131F8
:102FB00002AA103352181370059434002378002BA2
:102FC00001D0252B48D1A71BB4420BD03B003200C7
:102FD00029000298FFF7A1FF013000D1AEE00B9B62
:102FE000DB190B932378002B00D1A7E0012253219A
:102FF00000235242079202AA5218661C06930993B4
:10300000089313701C93594F31780522380000F053
:1030100083FB741C069906AB00281FD1CA0604D591
:103020005327202202A8C01902700A0704D553278B
:103030002B2202A8C019027032782A2A15D0340037
:1030400000200A27DA682178661C3039092950D90E
:10305000002811D009920FE00134AFE70123C01B13
:1030600083400B4326000693CDE7059A101D126896
:103070000590002A37DBDA6022782E2A0CD162789C
:103080002A2A3BD1059A0234111D12680591002AA3
:1030900001DA012252425A60354E03223000217873
:1030A00000F03AFB06AF002806D04023801B834087
:1030B000069A013413430693217806222D48661C94
:1030C000397600F029FB002847D02B4B002B29D163
:1030D0000722059B07339343083305930B9B039902
:1030E0005B180B9369E75242DA6002220A430692A8
:1030F000C2E77A43340001205218A4E700220A20D4
:103100005A601100130001342278661C303A092AF3
:1031100003D9002BC0D00791BEE7414334000123FF
:103120008918F1E705AA009239002A00134B02988A
:1031300000E000BF0390039B0133CFD16B6EDB0730
:1031400005D4AB899B0502D4A86DFFF7CBFDAB89F5
:103150005B0600D519E70B9819E705AA009239001C
:103160002A00064B029800F07BF8E3E7043A0008D7
:103170000A3A00080E3A0008000000001B2F000861
:10318000F7B5160001938A680B690C000090934212
:1031900000DA13002200336043321278002A01D093
:1031A0000133336023689B0602D5336802333360F2
:1031B0002268062315001D401A4227D023004333FE
:1031C0001B785A1E93412268920630D4220001993E
:1031D0000098089D4332A847013025D00622236875
:1031E00000251340042B05D13368E568ED1AEB4345
:1031F000DB171D40A3682269934201DD9B1AED187D
:103200000026B54220D1002010E00135E368326885
:103210009B1AAB42D2DD2200012301990098089F3E
:103220001932B8470130F0D101204042FEBD3020B4
:10323000E1184331087021005A1C45310978A21861
:10324000433202331170C1E7220001230199009833
:10325000089F1A32B8470130E6D00136D1E70000A6
:10326000F0B58BB006920A004332079305900392A3
:103270000A7E0C00109B782A09D8622A0BD8002AF3
:1032800000D1BAE07A490491582A00D18EE0250095
:1032900042352A7022E0100063381528F7D8FCF771
:1032A0000FFF16001F00F6FFF6FFF6FFF6FF1F00E8
:1032B000F6FFF6FFF6FFF6FF9F0036007E00F6FFF2
:1032C000F6FFB000F6FF3600F6FFF6FF820025009D
:1032D0001A684235111D196013682B7001239EE096
:1032E00018680968021D0D060BD506681A60002EC5
:1032F00003DA2D23039A764213705D4B0A27049359
:1033000018E006681A604906F1D536B2EFE708689A
:10331000196840C9050602D4400600D5B6B2196046
:10332000534B0A2704936F2A00D1023F2300002247
:1033300043331A706368A360002B06DB0421226804
:10334000039D8A43226033430CD0039D3000390033
:10335000FCF746FF049B013D5B5C2B7033000600CD
:103360009F42F3D9082F09D12368DB0706D562688D
:1033700023699A4202DC3023013D2B70039B5B1BC7
:103380002361079B210000930598069B09AAFFF77C
:10339000F7FE013048D1012040420BB0F0BD2022A1
:1033A00009680A432260782232490491210045319C
:1033B0000A701968226840C9100602D4500600D568
:1033C000B6B21960D30702D5202313432360002E21
:1033D00001D01027AAE72022236893432360F8E74F
:1033E0001A680D68101D4969186013682E0601D50A
:1033F000196002E06D06FBD519800023039D23614F
:10340000BFE71A68111D196015680021280062685D
:1034100000F082F9002801D0401B606063682361DE
:103420000023039A1370ACE72A00236906990598D4
:10343000079DA8470130AED023689B0715D4099B90
:10344000E0689842A9DA1800A7E72200012306994C
:103450000598079E1932B04701309CD00135E368CA
:10346000099A9B1AAB42F0DCE9E70025F7E7C04672
:10347000153A0008263A0008F7B50C228B5E0500C5
:103480000C001A075AD44A68002A02DC0A6C002A87
:103490004FDDE76A002F4CD0002280212E682A6081
:1034A0001A0049010A400B4234D0626DA3895B07C0
:1034B00006D56368D21A636B002B01D0236CD21A35
:1034C00000232800E76A216AB8470C23E25E431C08
:1034D00006D129681D292ED82B4BCB40DB072AD5D6
:1034E0000023636023692360D20405D5431C02D105
:1034F0002B68002B00D16065616B2E60002918D00D
:1035000023004433994202D02800FFF7F5FB002343
:1035100063630EE001232800216AB8470200431CC0
:10352000C4D12B68002BC1D01D2B01D0162B1DD16F
:103530002E60002021E0402313431BE00E69002E83
:10354000F7D00F680E60BA1B019200229B0700D1D2
:103550004A69A260019B002BEBDDA36A32001F00C9
:103560002800019B216AB847002807DC4023A28974
:1035700013431BB20120A3814042FEBD019B3618BC
:103580001B1A0193E6E7C046010040200B6970B5A5
:1035900005000C00002B02D10025280070BD00287A
:1035A00004D0036A002B01D1FFF78EF90C22A35E31
:1035B000002BF1D0626ED20704D49B0502D4A06D1B
:1035C000FFF78FFB28002100FFF756FF636E050011
:1035D000DB07E2D4A3899B05DFD4A06DFFF782FB54
:1035E000DBE70000F0B50E001D000E23C95E1400DD
:1035F00097B000290CDAB2898023110019401A42D1
:1036000014D18023DB0000202960236017B0F0BDB7
:103610006A4600F04BF80028EDDBF02301991B020D
:103620001940044BC9184B425941EAE70021402395
:10363000E9E7C04600E0FFFFF7B502268B890500E9
:103640000C00334206D0230047332360236101235B
:103650006361F7BD6A4601ABFFF7C4FF009F280016
:103660003900FFF7B5FB0C22A35E002806D19A05AE
:10367000EFD4032293431E43A681E4E78022134341
:10368000A381019B206020616761002BE1D02800AD
:103690000E23E15E00F01CF80028DAD00323A28993
:1036A0009A43023B1343A381D3E70000002370B584
:1036B000064D0400080011002B60FEF75DFF431C5F
:1036C00003D12B68002B00D0236070BD4C03002079
:1036D000002370B5064D040008002B60FEF751FF73
:1036E000431C03D12B68002B00D0236070BDC04663
:1036F0004C030020002370B5064D040008002B6029
:10370000FEF744FF431C03D12B68002B00D023603D
:1037100070BDC0464C030020C9B28218904201D14E
:103720000020704703788B42FBD00130F6E70000A1
:1037300070B542004E024C0045026D0A120EC30FD6
:10374000760A240EC90FFF2A10D0FF2C0CD00120BE
:10375000A2420AD1B54208D18B420FD0002A04D12F
:103760002800431E984100E0012070BD0120FF2C7D
:10377000FBD13543F9D14B401800F6E70020F4E7C0
:1037800030B5420044024D02C30F4800640A120ED5
:103790006D0A000EC90FFF2A18D0FF280AD0002A90
:1037A0001ED100280AD1002D29D0002C2DD148008F
:1037B000013830BD002D25D1002A01D1002CF6D0D2
:1037C0008B4219D001205B421843F2E7002C19D13B
:1037D000FF28F7D1002D15D100208B42F2D1E8E768
:1037E0000028EFD08B42EDD18242EBDC04DBAC420F
:1037F000E8D80020AC42DCD258000138D9E7002CD0
:10380000D7D0DFE702204042D3E78B42DAD1EEE7A0
:1038100030B5420044024D02C30F4800640A120E44
:103820006D0A000EC90FFF2A17D0FF280AD0002A00
:103830001BD100280AD1002D1DD0002C2DD148000D
:10384000013811E0002D0ED1002A01D1002CF6D054
:103850008B420CD15800013806E0002C03D1FF2820
:1038600005D1002D15D0022030BD002806D1012041
:103870005B421843F8E7002CF6D0F8E78B42F6D10C
:103880008242F4DCE6DBAC42F1D80020AC42EBD261
:10389000E0E700208B42EAD1E6E78B42E7D1F2E78E
:1038A000F8B5C046F8BC08BC9E467047F8B5C0469F
:0838B000F8BC08BC9E467047FD
:1038B800000020410000A041000020420000A0427A
:1038C80048414C5F5350495F5472616E736D69741F
:1038D80052656365697665204572723A3078255875
:1038E8000D0A0000736574206B5265674E616D6543
:1038F800436F6E74726F6C31204572726F722C72E6
:1039080065743A25642061637475616C3A30782572
:1039180058206578706563743A307825580D0A0028
:10392800736574206B5265674E616D65436F6E7485
:10393800726F6C32204572726F722C7265743A2500
:10394800642061637475616C3A3078255820657815
:10395800706563743A307825580D0A004452563819
:103968003330315F496E69742073756363657373AF
:103978000D00000073746172743A25640D0A00002A
:10398800656E643A2564206661756C743A25640D29
:103998000A000000445256383330315F436F6E6678
:1039A8006967204572723A25640D0A0044525638F8
:1039B8003330315F496E6974204572723A25640D5F
:1039C8000A0000000102030405060708090A0B0C97
:1039D8000D0E0F1002030405060708090A0B0C0D4B
:1039E8000E0F101000000000010203040000000088
:1039F800000000000102030406070809232D302BEC
:103A08002000686C4C0065666745464700303132D7
:103A1800333435363738394142434445460030312E
:103A2800323334353637383961626364656600008D
:043A3800D5020008AB
:043A3C00A9020008D3
:103A4000010000000400000000127A0000000000E5
:103A500003000000100200201C00002000000000F5
:103A60001002002078020020E00200200000000088
:103A70000000000000000000000000000000000046
:103A80000000000000000000000000000000000036
:103A90000000000000000000000000000000000026
:083AA00000000000000000001E
:040000050800275573
:00000001FF
